{
  "_format": "hh-sol-artifact-1",
  "contractName": "MyNFT",
  "sourceName": "contracts/MyNFT.sol",
  "abi": [
    {
      "inputs": [],
      "stateMutability": "nonpayable",
      "type": "constructor"
    },
    {
      "anonymous": false,
      "inputs": [
        {
          "indexed": true,
          "internalType": "address",
          "name": "owner",
          "type": "address"
        },
        {
          "indexed": true,
          "internalType": "address",
          "name": "approved",
          "type": "address"
        },
        {
          "indexed": true,
          "internalType": "uint256",
          "name": "tokenId",
          "type": "uint256"
        }
      ],
      "name": "Approval",
      "type": "event"
    },
    {
      "anonymous": false,
      "inputs": [
        {
          "indexed": true,
          "internalType": "address",
          "name": "owner",
          "type": "address"
        },
        {
          "indexed": true,
          "internalType": "address",
          "name": "operator",
          "type": "address"
        },
        {
          "indexed": false,
          "internalType": "bool",
          "name": "approved",
          "type": "bool"
        }
      ],
      "name": "ApprovalForAll",
      "type": "event"
    },
    {
      "anonymous": false,
      "inputs": [
        {
          "indexed": true,
          "internalType": "address",
          "name": "previousOwner",
          "type": "address"
        },
        {
          "indexed": true,
          "internalType": "address",
          "name": "newOwner",
          "type": "address"
        }
      ],
      "name": "OwnershipTransferred",
      "type": "event"
    },
    {
      "anonymous": false,
      "inputs": [
        {
          "indexed": true,
          "internalType": "address",
          "name": "from",
          "type": "address"
        },
        {
          "indexed": true,
          "internalType": "address",
          "name": "to",
          "type": "address"
        },
        {
          "indexed": true,
          "internalType": "uint256",
          "name": "tokenId",
          "type": "uint256"
        }
      ],
      "name": "Transfer",
      "type": "event"
    },
    {
      "inputs": [
        {
          "internalType": "address",
          "name": "to",
          "type": "address"
        },
        {
          "internalType": "uint256",
          "name": "tokenId",
          "type": "uint256"
        }
      ],
      "name": "approve",
      "outputs": [],
      "stateMutability": "nonpayable",
      "type": "function"
    },
    {
      "inputs": [
        {
          "internalType": "address",
          "name": "owner",
          "type": "address"
        }
      ],
      "name": "balanceOf",
      "outputs": [
        {
          "internalType": "uint256",
          "name": "",
          "type": "uint256"
        }
      ],
      "stateMutability": "view",
      "type": "function"
    },
    {
      "inputs": [
        {
          "internalType": "uint256",
          "name": "tokenId",
          "type": "uint256"
        }
      ],
      "name": "getApproved",
      "outputs": [
        {
          "internalType": "address",
          "name": "",
          "type": "address"
        }
      ],
      "stateMutability": "view",
      "type": "function"
    },
    {
      "inputs": [],
      "name": "getNFTlength",
      "outputs": [
        {
          "internalType": "uint256",
          "name": "",
          "type": "uint256"
        }
      ],
      "stateMutability": "view",
      "type": "function"
    },
    {
      "inputs": [
        {
          "internalType": "uint256",
          "name": "_index",
          "type": "uint256"
        }
      ],
      "name": "getSavetheplanetNFTS",
      "outputs": [
        {
          "components": [
            {
              "internalType": "uint256",
              "name": "tokenId",
              "type": "uint256"
            },
            {
              "internalType": "address payable",
              "name": "owner",
              "type": "address"
            }
          ],
          "internalType": "struct MyNFT.SaveThePlanet",
          "name": "",
          "type": "tuple"
        }
      ],
      "stateMutability": "view",
      "type": "function"
    },
    {
      "inputs": [
        {
          "internalType": "address",
          "name": "owner",
          "type": "address"
        },
        {
          "internalType": "address",
          "name": "operator",
          "type": "address"
        }
      ],
      "name": "isApprovedForAll",
      "outputs": [
        {
          "internalType": "bool",
          "name": "",
          "type": "bool"
        }
      ],
      "stateMutability": "view",
      "type": "function"
    },
    {
      "inputs": [
        {
          "internalType": "address",
          "name": "to",
          "type": "address"
        },
        {
          "internalType": "uint256[]",
          "name": "ids",
          "type": "uint256[]"
        },
        {
          "internalType": "uint256[]",
          "name": "amounts",
          "type": "uint256[]"
        },
        {
          "internalType": "bytes",
          "name": "data",
          "type": "bytes"
        }
      ],
      "name": "mintBatch",
      "outputs": [],
      "stateMutability": "nonpayable",
      "type": "function"
    },
    {
      "inputs": [],
      "name": "name",
      "outputs": [
        {
          "internalType": "string",
          "name": "",
          "type": "string"
        }
      ],
      "stateMutability": "view",
      "type": "function"
    },
    {
      "inputs": [],
      "name": "numberofNFTMinted",
      "outputs": [
        {
          "internalType": "uint256",
          "name": "",
          "type": "uint256"
        }
      ],
      "stateMutability": "view",
      "type": "function"
    },
    {
      "inputs": [],
      "name": "owner",
      "outputs": [
        {
          "internalType": "address",
          "name": "",
          "type": "address"
        }
      ],
      "stateMutability": "view",
      "type": "function"
    },
    {
      "inputs": [
        {
          "internalType": "uint256",
          "name": "tokenId",
          "type": "uint256"
        }
      ],
      "name": "ownerOf",
      "outputs": [
        {
          "internalType": "address",
          "name": "",
          "type": "address"
        }
      ],
      "stateMutability": "view",
      "type": "function"
    },
    {
      "inputs": [
        {
          "internalType": "uint256",
          "name": "_index",
          "type": "uint256"
        }
      ],
      "name": "removeNFT",
      "outputs": [],
      "stateMutability": "nonpayable",
      "type": "function"
    },
    {
      "inputs": [],
      "name": "renounceOwnership",
      "outputs": [],
      "stateMutability": "nonpayable",
      "type": "function"
    },
    {
      "inputs": [
        {
          "internalType": "string",
          "name": "uri",
          "type": "string"
        }
      ],
      "name": "safeMint",
      "outputs": [],
      "stateMutability": "payable",
      "type": "function"
    },
    {
      "inputs": [
        {
          "internalType": "address",
          "name": "from",
          "type": "address"
        },
        {
          "internalType": "address",
          "name": "to",
          "type": "address"
        },
        {
          "internalType": "uint256",
          "name": "tokenId",
          "type": "uint256"
        }
      ],
      "name": "safeTransferFrom",
      "outputs": [],
      "stateMutability": "nonpayable",
      "type": "function"
    },
    {
      "inputs": [
        {
          "internalType": "address",
          "name": "from",
          "type": "address"
        },
        {
          "internalType": "address",
          "name": "to",
          "type": "address"
        },
        {
          "internalType": "uint256",
          "name": "tokenId",
          "type": "uint256"
        },
        {
          "internalType": "bytes",
          "name": "_data",
          "type": "bytes"
        }
      ],
      "name": "safeTransferFrom",
      "outputs": [],
      "stateMutability": "nonpayable",
      "type": "function"
    },
    {
      "inputs": [
        {
          "internalType": "address",
          "name": "operator",
          "type": "address"
        },
        {
          "internalType": "bool",
          "name": "approved",
          "type": "bool"
        }
      ],
      "name": "setApprovalForAll",
      "outputs": [],
      "stateMutability": "nonpayable",
      "type": "function"
    },
    {
      "inputs": [
        {
          "internalType": "bytes4",
          "name": "interfaceId",
          "type": "bytes4"
        }
      ],
      "name": "supportsInterface",
      "outputs": [
        {
          "internalType": "bool",
          "name": "",
          "type": "bool"
        }
      ],
      "stateMutability": "view",
      "type": "function"
    },
    {
      "inputs": [],
      "name": "symbol",
      "outputs": [
        {
          "internalType": "string",
          "name": "",
          "type": "string"
        }
      ],
      "stateMutability": "view",
      "type": "function"
    },
    {
      "inputs": [
        {
          "internalType": "uint256",
          "name": "index",
          "type": "uint256"
        }
      ],
      "name": "tokenByIndex",
      "outputs": [
        {
          "internalType": "uint256",
          "name": "",
          "type": "uint256"
        }
      ],
      "stateMutability": "view",
      "type": "function"
    },
    {
      "inputs": [
        {
          "internalType": "address",
          "name": "owner",
          "type": "address"
        },
        {
          "internalType": "uint256",
          "name": "index",
          "type": "uint256"
        }
      ],
      "name": "tokenOfOwnerByIndex",
      "outputs": [
        {
          "internalType": "uint256",
          "name": "",
          "type": "uint256"
        }
      ],
      "stateMutability": "view",
      "type": "function"
    },
    {
      "inputs": [
        {
          "internalType": "uint256",
          "name": "tokenId",
          "type": "uint256"
        }
      ],
      "name": "tokenURI",
      "outputs": [
        {
          "internalType": "string",
          "name": "",
          "type": "string"
        }
      ],
      "stateMutability": "view",
      "type": "function"
    },
    {
      "inputs": [],
      "name": "totalSupply",
      "outputs": [
        {
          "internalType": "uint256",
          "name": "",
          "type": "uint256"
        }
      ],
      "stateMutability": "view",
      "type": "function"
    },
    {
      "inputs": [
        {
          "internalType": "address",
          "name": "from",
          "type": "address"
        },
        {
          "internalType": "address",
          "name": "to",
          "type": "address"
        },
        {
          "internalType": "uint256",
          "name": "tokenId",
          "type": "uint256"
        }
      ],
      "name": "transferFrom",
      "outputs": [],
      "stateMutability": "nonpayable",
      "type": "function"
    },
    {
      "inputs": [
        {
          "internalType": "address",
          "name": "newOwner",
          "type": "address"
        }
      ],
      "name": "transferOwnership",
      "outputs": [],
      "stateMutability": "nonpayable",
      "type": "function"
    }
  ],
  "bytecode": "0x60806040526000600d553480156200001657600080fd5b506040518060400160405280601081526020017f53617665546865506c616e65744e4654000000000000000000000000000000008152506040518060400160405280600681526020017f5354504e4654000000000000000000000000000000000000000000000000000081525081600090805190602001906200009b929190620001ab565b508060019080519060200190620000b4929190620001ab565b505050620000d7620000cb620000dd60201b60201c565b620000e560201b60201c565b620002c0565b600033905090565b6000600b60009054906101000a900473ffffffffffffffffffffffffffffffffffffffff16905081600b60006101000a81548173ffffffffffffffffffffffffffffffffffffffff021916908373ffffffffffffffffffffffffffffffffffffffff1602179055508173ffffffffffffffffffffffffffffffffffffffff168173ffffffffffffffffffffffffffffffffffffffff167f8be0079c531659141344cd1fd0a4f28419497f9722a3daafe3b4186f6b6457e060405160405180910390a35050565b828054620001b9906200025b565b90600052602060002090601f016020900481019282620001dd576000855562000229565b82601f10620001f857805160ff191683800117855562000229565b8280016001018555821562000229579182015b82811115620002285782518255916020019190600101906200020b565b5b5090506200023891906200023c565b5090565b5b80821115620002575760008160009055506001016200023d565b5090565b600060028204905060018216806200027457607f821691505b602082108114156200028b576200028a62000291565b5b50919050565b7f4e487b7100000000000000000000000000000000000000000000000000000000600052602260045260246000fd5b6140ca80620002d06000396000f3fe6080604052600436106101665760003560e01c806370a08231116100d1578063c87b56dd1161008a578063e985e9c511610064578063e985e9c514610553578063ee4739cb14610590578063f2fde38b146105b9578063fff614a1146105e257610166565b8063c87b56dd146104ae578063d41daa2b146104eb578063ddf3db221461051657610166565b806370a08231146103b2578063715018a6146103ef5780638da5cb5b1461040657806395d89b4114610431578063a22cb4651461045c578063b88d4fde1461048557610166565b806323b872dd1161012357806323b872dd1461028d5780632f745c59146102b657806342842e0e146102f35780634f6ccce71461031c5780636352211e14610359578063695850fb1461039657610166565b806301ffc9a71461016b57806306fdde03146101a8578063081812fc146101d3578063095ea7b31461021057806318160ddd146102395780631f7fdffa14610264575b600080fd5b34801561017757600080fd5b50610192600480360381019061018d9190612dd8565b61060d565b60405161019f919061331b565b60405180910390f35b3480156101b457600080fd5b506101bd61061f565b6040516101ca9190613336565b60405180910390f35b3480156101df57600080fd5b506101fa60048036038101906101f59190612e6b565b6106b1565b60405161020791906132b4565b60405180910390f35b34801561021c57600080fd5b5061023760048036038101906102329190612d9c565b610736565b005b34801561024557600080fd5b5061024e61084e565b60405161025b9190613613565b60405180910390f35b34801561027057600080fd5b5061028b60048036038101906102869190612cb5565b61085b565b005b34801561029957600080fd5b506102b460048036038101906102af9190612beb565b6108e9565b005b3480156102c257600080fd5b506102dd60048036038101906102d89190612d9c565b610949565b6040516102ea9190613613565b60405180910390f35b3480156102ff57600080fd5b5061031a60048036038101906103159190612beb565b6109ee565b005b34801561032857600080fd5b50610343600480360381019061033e9190612e6b565b610a0e565b6040516103509190613613565b60405180910390f35b34801561036557600080fd5b50610380600480360381019061037b9190612e6b565b610aa5565b60405161038d91906132b4565b60405180910390f35b6103b060048036038101906103ab9190612e2a565b610b57565b005b3480156103be57600080fd5b506103d960048036038101906103d49190612b86565b610be4565b6040516103e69190613613565b60405180910390f35b3480156103fb57600080fd5b50610404610c9c565b005b34801561041257600080fd5b5061041b610d24565b60405161042891906132b4565b60405180910390f35b34801561043d57600080fd5b50610446610d4e565b6040516104539190613336565b60405180910390f35b34801561046857600080fd5b50610483600480360381019061047e9190612d60565b610de0565b005b34801561049157600080fd5b506104ac60048036038101906104a79190612c3a565b610df6565b005b3480156104ba57600080fd5b506104d560048036038101906104d09190612e6b565b610e58565b6040516104e29190613336565b60405180910390f35b3480156104f757600080fd5b50610500610e6a565b60405161050d9190613613565b60405180910390f35b34801561052257600080fd5b5061053d60048036038101906105389190612e6b565b610e74565b60405161054a91906135f8565b60405180910390f35b34801561055f57600080fd5b5061057a60048036038101906105759190612baf565b610f01565b604051610587919061331b565b60405180910390f35b34801561059c57600080fd5b506105b760048036038101906105b29190612e6b565b610f95565b005b3480156105c557600080fd5b506105e060048036038101906105db9190612b86565b61114f565b005b3480156105ee57600080fd5b506105f7611247565b6040516106049190613613565b60405180910390f35b60006106188261125b565b9050919050565b60606000805461062e906138d1565b80601f016020809104026020016040519081016040528092919081815260200182805461065a906138d1565b80156106a75780601f1061067c576101008083540402835291602001916106a7565b820191906000526020600020905b81548152906001019060200180831161068a57829003601f168201915b5050505050905090565b60006106bc826112d5565b6106fb576040517f08c379a00000000000000000000000000000000000000000000000000000000081526004016106f290613538565b60405180910390fd5b6004600083815260200190815260200160002060009054906101000a900473ffffffffffffffffffffffffffffffffffffffff169050919050565b600061074182610aa5565b90508073ffffffffffffffffffffffffffffffffffffffff168373ffffffffffffffffffffffffffffffffffffffff1614156107b2576040517f08c379a00000000000000000000000000000000000000000000000000000000081526004016107a990613598565b60405180910390fd5b8073ffffffffffffffffffffffffffffffffffffffff166107d1611341565b73ffffffffffffffffffffffffffffffffffffffff16148061080057506107ff816107fa611341565b610f01565b5b61083f576040517f08c379a000000000000000000000000000000000000000000000000000000000815260040161083690613478565b60405180910390fd5b6108498383611349565b505050565b6000600880549050905090565b610863611341565b73ffffffffffffffffffffffffffffffffffffffff16610881610d24565b73ffffffffffffffffffffffffffffffffffffffff16146108d7576040517f08c379a00000000000000000000000000000000000000000000000000000000081526004016108ce90613558565b60405180910390fd5b6108e38484848461085b565b50505050565b6108fa6108f4611341565b82611402565b610939576040517f08c379a0000000000000000000000000000000000000000000000000000000008152600401610930906135b8565b60405180910390fd5b6109448383836114e0565b505050565b600061095483610be4565b8210610995576040517f08c379a000000000000000000000000000000000000000000000000000000000815260040161098c90613358565b60405180910390fd5b600660008473ffffffffffffffffffffffffffffffffffffffff1673ffffffffffffffffffffffffffffffffffffffff168152602001908152602001600020600083815260200190815260200160002054905092915050565b610a0983838360405180602001604052806000815250610df6565b505050565b6000610a1861084e565b8210610a59576040517f08c379a0000000000000000000000000000000000000000000000000000000008152600401610a50906135d8565b60405180910390fd5b60088281548110610a93577f4e487b7100000000000000000000000000000000000000000000000000000000600052603260045260246000fd5b90600052602060002001549050919050565b6000806002600084815260200190815260200160002060009054906101000a900473ffffffffffffffffffffffffffffffffffffffff169050600073ffffffffffffffffffffffffffffffffffffffff168173ffffffffffffffffffffffffffffffffffffffff161415610b4e576040517f08c379a0000000000000000000000000000000000000000000000000000000008152600401610b45906134b8565b60405180910390fd5b80915050919050565b6000610b63600c611747565b90506000610b6f610d24565b9050610b7b600c611755565b610b85338361176b565b610b8f8284611789565b8073ffffffffffffffffffffffffffffffffffffffff166108fc349081150290604051600060405180830381858888f19350505050158015610bd5573d6000803e3d6000fd5b50610bdf826117fd565b505050565b60008073ffffffffffffffffffffffffffffffffffffffff168273ffffffffffffffffffffffffffffffffffffffff161415610c55576040517f08c379a0000000000000000000000000000000000000000000000000000000008152600401610c4c90613498565b60405180910390fd5b600360008373ffffffffffffffffffffffffffffffffffffffff1673ffffffffffffffffffffffffffffffffffffffff168152602001908152602001600020549050919050565b610ca4611341565b73ffffffffffffffffffffffffffffffffffffffff16610cc2610d24565b73ffffffffffffffffffffffffffffffffffffffff1614610d18576040517f08c379a0000000000000000000000000000000000000000000000000000000008152600401610d0f90613558565b60405180910390fd5b610d2260006118b7565b565b6000600b60009054906101000a900473ffffffffffffffffffffffffffffffffffffffff16905090565b606060018054610d5d906138d1565b80601f0160208091040260200160405190810160405280929190818152602001828054610d89906138d1565b8015610dd65780601f10610dab57610100808354040283529160200191610dd6565b820191906000526020600020905b815481529060010190602001808311610db957829003601f168201915b5050505050905090565b610df2610deb611341565b838361197d565b5050565b610e07610e01611341565b83611402565b610e46576040517f08c379a0000000000000000000000000000000000000000000000000000000008152600401610e3d906135b8565b60405180910390fd5b610e5284848484611aea565b50505050565b6060610e6382611b46565b9050919050565b6000600d54905090565b610e7c6128e4565b600e6000838152602001908152602001600020604051806040016040529081600082015481526020016001820160009054906101000a900473ffffffffffffffffffffffffffffffffffffffff1673ffffffffffffffffffffffffffffffffffffffff1673ffffffffffffffffffffffffffffffffffffffff16815250509050919050565b6000600560008473ffffffffffffffffffffffffffffffffffffffff1673ffffffffffffffffffffffffffffffffffffffff16815260200190815260200160002060008373ffffffffffffffffffffffffffffffffffffffff1673ffffffffffffffffffffffffffffffffffffffff16815260200190815260200160002060009054906101000a900460ff16905092915050565b600e600082815260200190815260200160002060010160009054906101000a900473ffffffffffffffffffffffffffffffffffffffff1673ffffffffffffffffffffffffffffffffffffffff163373ffffffffffffffffffffffffffffffffffffffff1614611039576040517f08c379a0000000000000000000000000000000000000000000000000000000008152600401611030906133f8565b60405180910390fd5b600e60006001600d5461104c91906137ab565b8152602001908152602001600020600e6000838152602001908152602001600020600082015481600001556001820160009054906101000a900473ffffffffffffffffffffffffffffffffffffffff168160010160006101000a81548173ffffffffffffffffffffffffffffffffffffffff021916908373ffffffffffffffffffffffffffffffffffffffff160217905550905050600e60006001600d546110f491906137ab565b81526020019081526020016000206000808201600090556001820160006101000a81549073ffffffffffffffffffffffffffffffffffffffff02191690555050600d6000815480929190611147906138a7565b919050555050565b611157611341565b73ffffffffffffffffffffffffffffffffffffffff16611175610d24565b73ffffffffffffffffffffffffffffffffffffffff16146111cb576040517f08c379a00000000000000000000000000000000000000000000000000000000081526004016111c290613558565b60405180910390fd5b600073ffffffffffffffffffffffffffffffffffffffff168173ffffffffffffffffffffffffffffffffffffffff16141561123b576040517f08c379a000000000000000000000000000000000000000000000000000000000815260040161123290613398565b60405180910390fd5b611244816118b7565b50565b60008061125261084e565b90508091505090565b60007f780e9d63000000000000000000000000000000000000000000000000000000007bffffffffffffffffffffffffffffffffffffffffffffffffffffffff1916827bffffffffffffffffffffffffffffffffffffffffffffffffffffffff191614806112ce57506112cd82611c98565b5b9050919050565b60008073ffffffffffffffffffffffffffffffffffffffff166002600084815260200190815260200160002060009054906101000a900473ffffffffffffffffffffffffffffffffffffffff1673ffffffffffffffffffffffffffffffffffffffff1614159050919050565b600033905090565b816004600083815260200190815260200160002060006101000a81548173ffffffffffffffffffffffffffffffffffffffff021916908373ffffffffffffffffffffffffffffffffffffffff160217905550808273ffffffffffffffffffffffffffffffffffffffff166113bc83610aa5565b73ffffffffffffffffffffffffffffffffffffffff167f8c5be1e5ebec7d5bd14f71427d1e84f3dd0314c0f7b2291e5b200ac8c7c3b92560405160405180910390a45050565b600061140d826112d5565b61144c576040517f08c379a000000000000000000000000000000000000000000000000000000000815260040161144390613458565b60405180910390fd5b600061145783610aa5565b90508073ffffffffffffffffffffffffffffffffffffffff168473ffffffffffffffffffffffffffffffffffffffff16148061149957506114988185610f01565b5b806114d757508373ffffffffffffffffffffffffffffffffffffffff166114bf846106b1565b73ffffffffffffffffffffffffffffffffffffffff16145b91505092915050565b8273ffffffffffffffffffffffffffffffffffffffff1661150082610aa5565b73ffffffffffffffffffffffffffffffffffffffff1614611556576040517f08c379a000000000000000000000000000000000000000000000000000000000815260040161154d906133b8565b60405180910390fd5b600073ffffffffffffffffffffffffffffffffffffffff168273ffffffffffffffffffffffffffffffffffffffff1614156115c6576040517f08c379a00000000000000000000000000000000000000000000000000000000081526004016115bd90613418565b60405180910390fd5b6115d1838383611d7a565b6115dc600082611349565b6001600360008573ffffffffffffffffffffffffffffffffffffffff1673ffffffffffffffffffffffffffffffffffffffff168152602001908152602001600020600082825461162c91906137ab565b925050819055506001600360008473ffffffffffffffffffffffffffffffffffffffff1673ffffffffffffffffffffffffffffffffffffffff16815260200190815260200160002060008282546116839190613724565b92505081905550816002600083815260200190815260200160002060006101000a81548173ffffffffffffffffffffffffffffffffffffffff021916908373ffffffffffffffffffffffffffffffffffffffff160217905550808273ffffffffffffffffffffffffffffffffffffffff168473ffffffffffffffffffffffffffffffffffffffff167fddf252ad1be2c89b69c2b068fc378daa952ba7f163c4a11628f55a4df523b3ef60405160405180910390a4611742838383611d8a565b505050565b600081600001549050919050565b6001816000016000828254019250508190555050565b611785828260405180602001604052806000815250611d8f565b5050565b611792826112d5565b6117d1576040517f08c379a00000000000000000000000000000000000000000000000000000000081526004016117c8906134d8565b60405180910390fd5b80600a600084815260200190815260200160002090805190602001906117f8929190612914565b505050565b60405180604001604052808281526020013373ffffffffffffffffffffffffffffffffffffffff16815250600e6000600d5481526020019081526020016000206000820151816000015560208201518160010160006101000a81548173ffffffffffffffffffffffffffffffffffffffff021916908373ffffffffffffffffffffffffffffffffffffffff160217905550905050600d60008154809291906118a490613934565b91905055506118b43330836114e0565b50565b6000600b60009054906101000a900473ffffffffffffffffffffffffffffffffffffffff16905081600b60006101000a81548173ffffffffffffffffffffffffffffffffffffffff021916908373ffffffffffffffffffffffffffffffffffffffff1602179055508173ffffffffffffffffffffffffffffffffffffffff168173ffffffffffffffffffffffffffffffffffffffff167f8be0079c531659141344cd1fd0a4f28419497f9722a3daafe3b4186f6b6457e060405160405180910390a35050565b8173ffffffffffffffffffffffffffffffffffffffff168373ffffffffffffffffffffffffffffffffffffffff1614156119ec576040517f08c379a00000000000000000000000000000000000000000000000000000000081526004016119e390613438565b60405180910390fd5b80600560008573ffffffffffffffffffffffffffffffffffffffff1673ffffffffffffffffffffffffffffffffffffffff16815260200190815260200160002060008473ffffffffffffffffffffffffffffffffffffffff1673ffffffffffffffffffffffffffffffffffffffff16815260200190815260200160002060006101000a81548160ff0219169083151502179055508173ffffffffffffffffffffffffffffffffffffffff168373ffffffffffffffffffffffffffffffffffffffff167f17307eab39ab6107e8899845ad3d59bd9653f200f220920489ca2b5937696c3183604051611add919061331b565b60405180910390a3505050565b611af58484846114e0565b611b0184848484611dea565b611b40576040517f08c379a0000000000000000000000000000000000000000000000000000000008152600401611b3790613378565b60405180910390fd5b50505050565b6060611b51826112d5565b611b90576040517f08c379a0000000000000000000000000000000000000000000000000000000008152600401611b8790613518565b60405180910390fd5b6000600a60008481526020019081526020016000208054611bb0906138d1565b80601f0160208091040260200160405190810160405280929190818152602001828054611bdc906138d1565b8015611c295780601f10611bfe57610100808354040283529160200191611c29565b820191906000526020600020905b815481529060010190602001808311611c0c57829003601f168201915b505050505090506000611c3a611f81565b9050600081511415611c50578192505050611c93565b600082511115611c85578082604051602001611c6d929190613290565b60405160208183030381529060405292505050611c93565b611c8e84611f98565b925050505b919050565b60007f80ac58cd000000000000000000000000000000000000000000000000000000007bffffffffffffffffffffffffffffffffffffffffffffffffffffffff1916827bffffffffffffffffffffffffffffffffffffffffffffffffffffffff19161480611d6357507f5b5e139f000000000000000000000000000000000000000000000000000000007bffffffffffffffffffffffffffffffffffffffffffffffffffffffff1916827bffffffffffffffffffffffffffffffffffffffffffffffffffffffff1916145b80611d735750611d728261203f565b5b9050919050565b611d858383836120a9565b505050565b505050565b611d9983836121bd565b611da66000848484611dea565b611de5576040517f08c379a0000000000000000000000000000000000000000000000000000000008152600401611ddc90613378565b60405180910390fd5b505050565b6000611e0b8473ffffffffffffffffffffffffffffffffffffffff16612397565b15611f74578373ffffffffffffffffffffffffffffffffffffffff1663150b7a02611e34611341565b8786866040518563ffffffff1660e01b8152600401611e5694939291906132cf565b602060405180830381600087803b158015611e7057600080fd5b505af1925050508015611ea157506040513d601f19601f82011682018060405250810190611e9e9190612e01565b60015b611f24573d8060008114611ed1576040519150601f19603f3d011682016040523d82523d6000602084013e611ed6565b606091505b50600081511415611f1c576040517f08c379a0000000000000000000000000000000000000000000000000000000008152600401611f1390613378565b60405180910390fd5b805181602001fd5b63150b7a0260e01b7bffffffffffffffffffffffffffffffffffffffffffffffffffffffff1916817bffffffffffffffffffffffffffffffffffffffffffffffffffffffff191614915050611f79565b600190505b949350505050565b606060405180602001604052806000815250905090565b6060611fa3826112d5565b611fe2576040517f08c379a0000000000000000000000000000000000000000000000000000000008152600401611fd990613578565b60405180910390fd5b6000611fec611f81565b9050600081511161200c5760405180602001604052806000815250612037565b80612016846123ba565b604051602001612027929190613290565b6040516020818303038152906040525b915050919050565b60007f01ffc9a7000000000000000000000000000000000000000000000000000000007bffffffffffffffffffffffffffffffffffffffffffffffffffffffff1916827bffffffffffffffffffffffffffffffffffffffffffffffffffffffff1916149050919050565b6120b4838383612567565b600073ffffffffffffffffffffffffffffffffffffffff168373ffffffffffffffffffffffffffffffffffffffff1614156120f7576120f28161256c565b612136565b8173ffffffffffffffffffffffffffffffffffffffff168373ffffffffffffffffffffffffffffffffffffffff16146121355761213483826125b5565b5b5b600073ffffffffffffffffffffffffffffffffffffffff168273ffffffffffffffffffffffffffffffffffffffff1614156121795761217481612722565b6121b8565b8273ffffffffffffffffffffffffffffffffffffffff168273ffffffffffffffffffffffffffffffffffffffff16146121b7576121b68282612865565b5b5b505050565b600073ffffffffffffffffffffffffffffffffffffffff168273ffffffffffffffffffffffffffffffffffffffff16141561222d576040517f08c379a0000000000000000000000000000000000000000000000000000000008152600401612224906134f8565b60405180910390fd5b612236816112d5565b15612276576040517f08c379a000000000000000000000000000000000000000000000000000000000815260040161226d906133d8565b60405180910390fd5b61228260008383611d7a565b6001600360008473ffffffffffffffffffffffffffffffffffffffff1673ffffffffffffffffffffffffffffffffffffffff16815260200190815260200160002060008282546122d29190613724565b92505081905550816002600083815260200190815260200160002060006101000a81548173ffffffffffffffffffffffffffffffffffffffff021916908373ffffffffffffffffffffffffffffffffffffffff160217905550808273ffffffffffffffffffffffffffffffffffffffff16600073ffffffffffffffffffffffffffffffffffffffff167fddf252ad1be2c89b69c2b068fc378daa952ba7f163c4a11628f55a4df523b3ef60405160405180910390a461239360008383611d8a565b5050565b6000808273ffffffffffffffffffffffffffffffffffffffff163b119050919050565b60606000821415612402576040518060400160405280600181526020017f30000000000000000000000000000000000000000000000000000000000000008152509050612562565b600082905060005b6000821461243457808061241d90613934565b915050600a8261242d919061377a565b915061240a565b60008167ffffffffffffffff811115612476577f4e487b7100000000000000000000000000000000000000000000000000000000600052604160045260246000fd5b6040519080825280601f01601f1916602001820160405280156124a85781602001600182028036833780820191505090505b5090505b6000851461255b576001826124c191906137ab565b9150600a856124d0919061397d565b60306124dc9190613724565b60f81b818381518110612518577f4e487b7100000000000000000000000000000000000000000000000000000000600052603260045260246000fd5b60200101907effffffffffffffffffffffffffffffffffffffffffffffffffffffffffffff1916908160001a905350600a85612554919061377a565b94506124ac565b8093505050505b919050565b505050565b6008805490506009600083815260200190815260200160002081905550600881908060018154018082558091505060019003906000526020600020016000909190919091505550565b600060016125c284610be4565b6125cc91906137ab565b90506000600760008481526020019081526020016000205490508181146126b1576000600660008673ffffffffffffffffffffffffffffffffffffffff1673ffffffffffffffffffffffffffffffffffffffff168152602001908152602001600020600084815260200190815260200160002054905080600660008773ffffffffffffffffffffffffffffffffffffffff1673ffffffffffffffffffffffffffffffffffffffff168152602001908152602001600020600084815260200190815260200160002081905550816007600083815260200190815260200160002081905550505b6007600084815260200190815260200160002060009055600660008573ffffffffffffffffffffffffffffffffffffffff1673ffffffffffffffffffffffffffffffffffffffff16815260200190815260200160002060008381526020019081526020016000206000905550505050565b6000600160088054905061273691906137ab565b905060006009600084815260200190815260200160002054905060006008838154811061278c577f4e487b7100000000000000000000000000000000000000000000000000000000600052603260045260246000fd5b9060005260206000200154905080600883815481106127d4577f4e487b7100000000000000000000000000000000000000000000000000000000600052603260045260246000fd5b906000526020600020018190555081600960008381526020019081526020016000208190555060096000858152602001908152602001600020600090556008805480612849577f4e487b7100000000000000000000000000000000000000000000000000000000600052603160045260246000fd5b6001900381819060005260206000200160009055905550505050565b600061287083610be4565b905081600660008573ffffffffffffffffffffffffffffffffffffffff1673ffffffffffffffffffffffffffffffffffffffff168152602001908152602001600020600083815260200190815260200160002081905550806007600084815260200190815260200160002081905550505050565b604051806040016040528060008152602001600073ffffffffffffffffffffffffffffffffffffffff1681525090565b828054612920906138d1565b90600052602060002090601f0160209004810192826129425760008555612989565b82601f1061295b57805160ff1916838001178555612989565b82800160010185558215612989579182015b8281111561298857825182559160200191906001019061296d565b5b509050612996919061299a565b5090565b5b808211156129b357600081600090555060010161299b565b5090565b60006129ca6129c584613653565b61362e565b905080838252602082019050828560208602820111156129e957600080fd5b60005b85811015612a1957816129ff8882612b71565b8452602084019350602083019250506001810190506129ec565b5050509392505050565b6000612a36612a318461367f565b61362e565b905082815260208101848484011115612a4e57600080fd5b612a59848285613865565b509392505050565b6000612a74612a6f846136b0565b61362e565b905082815260208101848484011115612a8c57600080fd5b612a97848285613865565b509392505050565b600081359050612aae81614038565b92915050565b600082601f830112612ac557600080fd5b8135612ad58482602086016129b7565b91505092915050565b600081359050612aed8161404f565b92915050565b600081359050612b0281614066565b92915050565b600081519050612b1781614066565b92915050565b600082601f830112612b2e57600080fd5b8135612b3e848260208601612a23565b91505092915050565b600082601f830112612b5857600080fd5b8135612b68848260208601612a61565b91505092915050565b600081359050612b808161407d565b92915050565b600060208284031215612b9857600080fd5b6000612ba684828501612a9f565b91505092915050565b60008060408385031215612bc257600080fd5b6000612bd085828601612a9f565b9250506020612be185828601612a9f565b9150509250929050565b600080600060608486031215612c0057600080fd5b6000612c0e86828701612a9f565b9350506020612c1f86828701612a9f565b9250506040612c3086828701612b71565b9150509250925092565b60008060008060808587031215612c5057600080fd5b6000612c5e87828801612a9f565b9450506020612c6f87828801612a9f565b9350506040612c8087828801612b71565b925050606085013567ffffffffffffffff811115612c9d57600080fd5b612ca987828801612b1d565b91505092959194509250565b60008060008060808587031215612ccb57600080fd5b6000612cd987828801612a9f565b945050602085013567ffffffffffffffff811115612cf657600080fd5b612d0287828801612ab4565b935050604085013567ffffffffffffffff811115612d1f57600080fd5b612d2b87828801612ab4565b925050606085013567ffffffffffffffff811115612d4857600080fd5b612d5487828801612b1d565b91505092959194509250565b60008060408385031215612d7357600080fd5b6000612d8185828601612a9f565b9250506020612d9285828601612ade565b9150509250929050565b60008060408385031215612daf57600080fd5b6000612dbd85828601612a9f565b9250506020612dce85828601612b71565b9150509250929050565b600060208284031215612dea57600080fd5b6000612df884828501612af3565b91505092915050565b600060208284031215612e1357600080fd5b6000612e2184828501612b08565b91505092915050565b600060208284031215612e3c57600080fd5b600082013567ffffffffffffffff811115612e5657600080fd5b612e6284828501612b47565b91505092915050565b600060208284031215612e7d57600080fd5b6000612e8b84828501612b71565b91505092915050565b612e9d816137f1565b82525050565b612eac816137df565b82525050565b612ebb81613803565b82525050565b6000612ecc826136e1565b612ed681856136f7565b9350612ee6818560208601613874565b612eef81613a6a565b840191505092915050565b6000612f05826136ec565b612f0f8185613708565b9350612f1f818560208601613874565b612f2881613a6a565b840191505092915050565b6000612f3e826136ec565b612f488185613719565b9350612f58818560208601613874565b80840191505092915050565b6000612f71602b83613708565b9150612f7c82613a7b565b604082019050919050565b6000612f94603283613708565b9150612f9f82613aca565b604082019050919050565b6000612fb7602683613708565b9150612fc282613b19565b604082019050919050565b6000612fda602583613708565b9150612fe582613b68565b604082019050919050565b6000612ffd601c83613708565b915061300882613bb7565b602082019050919050565b6000613020601583613708565b915061302b82613be0565b602082019050919050565b6000613043602483613708565b915061304e82613c09565b604082019050919050565b6000613066601983613708565b915061307182613c58565b602082019050919050565b6000613089602c83613708565b915061309482613c81565b604082019050919050565b60006130ac603883613708565b91506130b782613cd0565b604082019050919050565b60006130cf602a83613708565b91506130da82613d1f565b604082019050919050565b60006130f2602983613708565b91506130fd82613d6e565b604082019050919050565b6000613115602e83613708565b915061312082613dbd565b604082019050919050565b6000613138602083613708565b915061314382613e0c565b602082019050919050565b600061315b603183613708565b915061316682613e35565b604082019050919050565b600061317e602c83613708565b915061318982613e84565b604082019050919050565b60006131a1602083613708565b91506131ac82613ed3565b602082019050919050565b60006131c4602f83613708565b91506131cf82613efc565b604082019050919050565b60006131e7602183613708565b91506131f282613f4b565b604082019050919050565b600061320a603183613708565b915061321582613f9a565b604082019050919050565b600061322d602c83613708565b915061323882613fe9565b604082019050919050565b6040820160008201516132596000850182613272565b50602082015161326c6020850182612e94565b50505050565b61327b8161385b565b82525050565b61328a8161385b565b82525050565b600061329c8285612f33565b91506132a88284612f33565b91508190509392505050565b60006020820190506132c96000830184612ea3565b92915050565b60006080820190506132e46000830187612ea3565b6132f16020830186612ea3565b6132fe6040830185613281565b81810360608301526133108184612ec1565b905095945050505050565b60006020820190506133306000830184612eb2565b92915050565b600060208201905081810360008301526133508184612efa565b905092915050565b6000602082019050818103600083015261337181612f64565b9050919050565b6000602082019050818103600083015261339181612f87565b9050919050565b600060208201905081810360008301526133b181612faa565b9050919050565b600060208201905081810360008301526133d181612fcd565b9050919050565b600060208201905081810360008301526133f181612ff0565b9050919050565b6000602082019050818103600083015261341181613013565b9050919050565b6000602082019050818103600083015261343181613036565b9050919050565b6000602082019050818103600083015261345181613059565b9050919050565b600060208201905081810360008301526134718161307c565b9050919050565b600060208201905081810360008301526134918161309f565b9050919050565b600060208201905081810360008301526134b1816130c2565b9050919050565b600060208201905081810360008301526134d1816130e5565b9050919050565b600060208201905081810360008301526134f181613108565b9050919050565b600060208201905081810360008301526135118161312b565b9050919050565b600060208201905081810360008301526135318161314e565b9050919050565b6000602082019050818103600083015261355181613171565b9050919050565b6000602082019050818103600083015261357181613194565b9050919050565b60006020820190508181036000830152613591816131b7565b9050919050565b600060208201905081810360008301526135b1816131da565b9050919050565b600060208201905081810360008301526135d1816131fd565b9050919050565b600060208201905081810360008301526135f181613220565b9050919050565b600060408201905061360d6000830184613243565b92915050565b60006020820190506136286000830184613281565b92915050565b6000613638613649565b90506136448282613903565b919050565b6000604051905090565b600067ffffffffffffffff82111561366e5761366d613a3b565b5b602082029050602081019050919050565b600067ffffffffffffffff82111561369a57613699613a3b565b5b6136a382613a6a565b9050602081019050919050565b600067ffffffffffffffff8211156136cb576136ca613a3b565b5b6136d482613a6a565b9050602081019050919050565b600081519050919050565b600081519050919050565b600082825260208201905092915050565b600082825260208201905092915050565b600081905092915050565b600061372f8261385b565b915061373a8361385b565b9250827fffffffffffffffffffffffffffffffffffffffffffffffffffffffffffffffff0382111561376f5761376e6139ae565b5b828201905092915050565b60006137858261385b565b91506137908361385b565b9250826137a05761379f6139dd565b5b828204905092915050565b60006137b68261385b565b91506137c18361385b565b9250828210156137d4576137d36139ae565b5b828203905092915050565b60006137ea8261383b565b9050919050565b60006137fc8261383b565b9050919050565b60008115159050919050565b60007fffffffff0000000000000000000000000000000000000000000000000000000082169050919050565b600073ffffffffffffffffffffffffffffffffffffffff82169050919050565b6000819050919050565b82818337600083830152505050565b60005b83811015613892578082015181840152602081019050613877565b838111156138a1576000848401525b50505050565b60006138b28261385b565b915060008214156138c6576138c56139ae565b5b600182039050919050565b600060028204905060018216806138e957607f821691505b602082108114156138fd576138fc613a0c565b5b50919050565b61390c82613a6a565b810181811067ffffffffffffffff8211171561392b5761392a613a3b565b5b80604052505050565b600061393f8261385b565b91507fffffffffffffffffffffffffffffffffffffffffffffffffffffffffffffffff821415613972576139716139ae565b5b600182019050919050565b60006139888261385b565b91506139938361385b565b9250826139a3576139a26139dd565b5b828206905092915050565b7f4e487b7100000000000000000000000000000000000000000000000000000000600052601160045260246000fd5b7f4e487b7100000000000000000000000000000000000000000000000000000000600052601260045260246000fd5b7f4e487b7100000000000000000000000000000000000000000000000000000000600052602260045260246000fd5b7f4e487b7100000000000000000000000000000000000000000000000000000000600052604160045260246000fd5b6000601f19601f8301169050919050565b7f455243373231456e756d657261626c653a206f776e657220696e646578206f7560008201527f74206f6620626f756e6473000000000000000000000000000000000000000000602082015250565b7f4552433732313a207472616e7366657220746f206e6f6e20455243373231526560008201527f63656976657220696d706c656d656e7465720000000000000000000000000000602082015250565b7f4f776e61626c653a206e6577206f776e657220697320746865207a65726f206160008201527f6464726573730000000000000000000000000000000000000000000000000000602082015250565b7f4552433732313a207472616e736665722066726f6d20696e636f72726563742060008201527f6f776e6572000000000000000000000000000000000000000000000000000000602082015250565b7f4552433732313a20746f6b656e20616c7265616479206d696e74656400000000600082015250565b7f63616e27742072656d6f76652074686973206e66740000000000000000000000600082015250565b7f4552433732313a207472616e7366657220746f20746865207a65726f2061646460008201527f7265737300000000000000000000000000000000000000000000000000000000602082015250565b7f4552433732313a20617070726f766520746f2063616c6c657200000000000000600082015250565b7f4552433732313a206f70657261746f7220717565727920666f72206e6f6e657860008201527f697374656e7420746f6b656e0000000000000000000000000000000000000000602082015250565b7f4552433732313a20617070726f76652063616c6c6572206973206e6f74206f7760008201527f6e6572206e6f7220617070726f76656420666f7220616c6c0000000000000000602082015250565b7f4552433732313a2062616c616e636520717565727920666f7220746865207a6560008201527f726f206164647265737300000000000000000000000000000000000000000000602082015250565b7f4552433732313a206f776e657220717565727920666f72206e6f6e657869737460008201527f656e7420746f6b656e0000000000000000000000000000000000000000000000602082015250565b7f45524337323155524953746f726167653a2055524920736574206f66206e6f6e60008201527f6578697374656e7420746f6b656e000000000000000000000000000000000000602082015250565b7f4552433732313a206d696e7420746f20746865207a65726f2061646472657373600082015250565b7f45524337323155524953746f726167653a2055524920717565727920666f722060008201527f6e6f6e6578697374656e7420746f6b656e000000000000000000000000000000602082015250565b7f4552433732313a20617070726f76656420717565727920666f72206e6f6e657860008201527f697374656e7420746f6b656e0000000000000000000000000000000000000000602082015250565b7f4f776e61626c653a2063616c6c6572206973206e6f7420746865206f776e6572600082015250565b7f4552433732314d657461646174613a2055524920717565727920666f72206e6f60008201527f6e6578697374656e7420746f6b656e0000000000000000000000000000000000602082015250565b7f4552433732313a20617070726f76616c20746f2063757272656e74206f776e6560008201527f7200000000000000000000000000000000000000000000000000000000000000602082015250565b7f4552433732313a207472616e736665722063616c6c6572206973206e6f74206f60008201527f776e6572206e6f7220617070726f766564000000000000000000000000000000602082015250565b7f455243373231456e756d657261626c653a20676c6f62616c20696e646578206f60008201527f7574206f6620626f756e64730000000000000000000000000000000000000000602082015250565b614041816137df565b811461404c57600080fd5b50565b61405881613803565b811461406357600080fd5b50565b61406f8161380f565b811461407a57600080fd5b50565b6140868161385b565b811461409157600080fd5b5056fea2646970667358221220f8893a08356eb73935f6c3d45ab57af096a83e86f7f32284908ad9392a24bfb264736f6c63430008040033",
  "linkReferences": {},
  "deployedLinkReferences": {}
}