{
  "_format": "hh-sol-artifact-1",
  "contractName": "MyNFT",
  "sourceName": "contracts/MyNFT.sol",
  "abi": [
    {
      "inputs": [],
      "stateMutability": "nonpayable",
      "type": "constructor"
    },
    {
      "anonymous": false,
      "inputs": [
        {
          "indexed": true,
          "internalType": "address",
          "name": "owner",
          "type": "address"
        },
        {
          "indexed": true,
          "internalType": "address",
          "name": "approved",
          "type": "address"
        },
        {
          "indexed": true,
          "internalType": "uint256",
          "name": "tokenId",
          "type": "uint256"
        }
      ],
      "name": "Approval",
      "type": "event"
    },
    {
      "anonymous": false,
      "inputs": [
        {
          "indexed": true,
          "internalType": "address",
          "name": "owner",
          "type": "address"
        },
        {
          "indexed": true,
          "internalType": "address",
          "name": "operator",
          "type": "address"
        },
        {
          "indexed": false,
          "internalType": "bool",
          "name": "approved",
          "type": "bool"
        }
      ],
      "name": "ApprovalForAll",
      "type": "event"
    },
    {
      "anonymous": false,
      "inputs": [
        {
          "indexed": true,
          "internalType": "address",
          "name": "previousOwner",
          "type": "address"
        },
        {
          "indexed": true,
          "internalType": "address",
          "name": "newOwner",
          "type": "address"
        }
      ],
      "name": "OwnershipTransferred",
      "type": "event"
    },
    {
      "anonymous": false,
      "inputs": [
        {
          "indexed": true,
          "internalType": "address",
          "name": "from",
          "type": "address"
        },
        {
          "indexed": true,
          "internalType": "address",
          "name": "to",
          "type": "address"
        },
        {
          "indexed": true,
          "internalType": "uint256",
          "name": "tokenId",
          "type": "uint256"
        }
      ],
      "name": "Transfer",
      "type": "event"
    },
    {
      "inputs": [
        {
          "internalType": "address",
          "name": "to",
          "type": "address"
        },
        {
          "internalType": "uint256",
          "name": "tokenId",
          "type": "uint256"
        }
      ],
      "name": "approve",
      "outputs": [],
      "stateMutability": "nonpayable",
      "type": "function"
    },
    {
      "inputs": [
        {
          "internalType": "address",
          "name": "owner",
          "type": "address"
        }
      ],
      "name": "balanceOf",
      "outputs": [
        {
          "internalType": "uint256",
          "name": "",
          "type": "uint256"
        }
      ],
      "stateMutability": "view",
      "type": "function"
    },
    {
      "inputs": [
        {
          "internalType": "uint256",
          "name": "tokenId",
          "type": "uint256"
        }
      ],
      "name": "getApproved",
      "outputs": [
        {
          "internalType": "address",
          "name": "",
          "type": "address"
        }
      ],
      "stateMutability": "view",
      "type": "function"
    },
    {
      "inputs": [
        {
          "internalType": "address",
          "name": "owner",
          "type": "address"
        },
        {
          "internalType": "address",
          "name": "operator",
          "type": "address"
        }
      ],
      "name": "isApprovedForAll",
      "outputs": [
        {
          "internalType": "bool",
          "name": "",
          "type": "bool"
        }
      ],
      "stateMutability": "view",
      "type": "function"
    },
    {
      "inputs": [],
      "name": "name",
      "outputs": [
        {
          "internalType": "string",
          "name": "",
          "type": "string"
        }
      ],
      "stateMutability": "view",
      "type": "function"
    },
    {
      "inputs": [],
      "name": "numberofNFTMinted",
      "outputs": [
        {
          "internalType": "uint256",
          "name": "",
          "type": "uint256"
        }
      ],
      "stateMutability": "view",
      "type": "function"
    },
    {
      "inputs": [],
      "name": "owner",
      "outputs": [
        {
          "internalType": "address",
          "name": "",
          "type": "address"
        }
      ],
      "stateMutability": "view",
      "type": "function"
    },
    {
      "inputs": [
        {
          "internalType": "uint256",
          "name": "tokenId",
          "type": "uint256"
        }
      ],
      "name": "ownerOf",
      "outputs": [
        {
          "internalType": "address",
          "name": "",
          "type": "address"
        }
      ],
      "stateMutability": "view",
      "type": "function"
    },
    {
      "inputs": [
        {
          "internalType": "address",
          "name": "receiver",
          "type": "address"
        },
        {
          "internalType": "uint256",
          "name": "ammount",
          "type": "uint256"
        },
        {
          "internalType": "string",
          "name": "uri",
          "type": "string"
        }
      ],
      "name": "payToMint",
      "outputs": [
        {
          "internalType": "uint256",
          "name": "",
          "type": "uint256"
        }
      ],
      "stateMutability": "payable",
      "type": "function"
    },
    {
      "inputs": [],
      "name": "renounceOwnership",
      "outputs": [],
      "stateMutability": "nonpayable",
      "type": "function"
    },
    {
      "inputs": [
        {
          "internalType": "address",
          "name": "to",
          "type": "address"
        },
        {
          "internalType": "string",
          "name": "uri",
          "type": "string"
        }
      ],
      "name": "safeMint",
      "outputs": [],
      "stateMutability": "nonpayable",
      "type": "function"
    },
    {
      "inputs": [
        {
          "internalType": "address",
          "name": "from",
          "type": "address"
        },
        {
          "internalType": "address",
          "name": "to",
          "type": "address"
        },
        {
          "internalType": "uint256",
          "name": "tokenId",
          "type": "uint256"
        }
      ],
      "name": "safeTransferFrom",
      "outputs": [],
      "stateMutability": "nonpayable",
      "type": "function"
    },
    {
      "inputs": [
        {
          "internalType": "address",
          "name": "from",
          "type": "address"
        },
        {
          "internalType": "address",
          "name": "to",
          "type": "address"
        },
        {
          "internalType": "uint256",
          "name": "tokenId",
          "type": "uint256"
        },
        {
          "internalType": "bytes",
          "name": "_data",
          "type": "bytes"
        }
      ],
      "name": "safeTransferFrom",
      "outputs": [],
      "stateMutability": "nonpayable",
      "type": "function"
    },
    {
      "inputs": [
        {
          "internalType": "address",
          "name": "operator",
          "type": "address"
        },
        {
          "internalType": "bool",
          "name": "approved",
          "type": "bool"
        }
      ],
      "name": "setApprovalForAll",
      "outputs": [],
      "stateMutability": "nonpayable",
      "type": "function"
    },
    {
      "inputs": [
        {
          "internalType": "bytes4",
          "name": "interfaceId",
          "type": "bytes4"
        }
      ],
      "name": "supportsInterface",
      "outputs": [
        {
          "internalType": "bool",
          "name": "",
          "type": "bool"
        }
      ],
      "stateMutability": "view",
      "type": "function"
    },
    {
      "inputs": [],
      "name": "symbol",
      "outputs": [
        {
          "internalType": "string",
          "name": "",
          "type": "string"
        }
      ],
      "stateMutability": "view",
      "type": "function"
    },
    {
      "inputs": [
        {
          "internalType": "uint256",
          "name": "index",
          "type": "uint256"
        }
      ],
      "name": "tokenByIndex",
      "outputs": [
        {
          "internalType": "uint256",
          "name": "",
          "type": "uint256"
        }
      ],
      "stateMutability": "view",
      "type": "function"
    },
    {
      "inputs": [
        {
          "internalType": "address",
          "name": "owner",
          "type": "address"
        },
        {
          "internalType": "uint256",
          "name": "index",
          "type": "uint256"
        }
      ],
      "name": "tokenOfOwnerByIndex",
      "outputs": [
        {
          "internalType": "uint256",
          "name": "",
          "type": "uint256"
        }
      ],
      "stateMutability": "view",
      "type": "function"
    },
    {
      "inputs": [
        {
          "internalType": "uint256",
          "name": "tokenId",
          "type": "uint256"
        }
      ],
      "name": "tokenURI",
      "outputs": [
        {
          "internalType": "string",
          "name": "",
          "type": "string"
        }
      ],
      "stateMutability": "view",
      "type": "function"
    },
    {
      "inputs": [],
      "name": "totalSupply",
      "outputs": [
        {
          "internalType": "uint256",
          "name": "",
          "type": "uint256"
        }
      ],
      "stateMutability": "view",
      "type": "function"
    },
    {
      "inputs": [
        {
          "internalType": "address",
          "name": "from",
          "type": "address"
        },
        {
          "internalType": "address",
          "name": "to",
          "type": "address"
        },
        {
          "internalType": "uint256",
          "name": "tokenId",
          "type": "uint256"
        }
      ],
      "name": "transferFrom",
      "outputs": [],
      "stateMutability": "nonpayable",
      "type": "function"
    },
    {
      "inputs": [
        {
          "internalType": "address",
          "name": "newOwner",
          "type": "address"
        }
      ],
      "name": "transferOwnership",
      "outputs": [],
      "stateMutability": "nonpayable",
      "type": "function"
    }
  ],
  "bytecode": "0x608060405273874069fa1eb16d44d622f2e0ca25eea172369bc1600c60006101000a81548173ffffffffffffffffffffffffffffffffffffffff021916908373ffffffffffffffffffffffffffffffffffffffff1602179055503480156200006657600080fd5b506040518060400160405280600681526020017f446f634e465400000000000000000000000000000000000000000000000000008152506040518060400160405280600481526020017f444e4654000000000000000000000000000000000000000000000000000000008152508160009080519060200190620000eb929190620001fb565b50806001908051906020019062000104929190620001fb565b505050620001276200011b6200012d60201b60201c565b6200013560201b60201c565b62000310565b600033905090565b6000600b60009054906101000a900473ffffffffffffffffffffffffffffffffffffffff16905081600b60006101000a81548173ffffffffffffffffffffffffffffffffffffffff021916908373ffffffffffffffffffffffffffffffffffffffff1602179055508173ffffffffffffffffffffffffffffffffffffffff168173ffffffffffffffffffffffffffffffffffffffff167f8be0079c531659141344cd1fd0a4f28419497f9722a3daafe3b4186f6b6457e060405160405180910390a35050565b8280546200020990620002ab565b90600052602060002090601f0160209004810192826200022d576000855562000279565b82601f106200024857805160ff191683800117855562000279565b8280016001018555821562000279579182015b82811115620002785782518255916020019190600101906200025b565b5b5090506200028891906200028c565b5090565b5b80821115620002a75760008160009055506001016200028d565b5090565b60006002820490506001821680620002c457607f821691505b60208210811415620002db57620002da620002e1565b5b50919050565b7f4e487b7100000000000000000000000000000000000000000000000000000000600052602260045260246000fd5b613c7a80620003206000396000f3fe6080604052600436106101355760003560e01c8063715018a6116100ab578063c87b56dd1161006f578063c87b56dd14610438578063cf8ff55c14610475578063d204c45e146104a5578063e985e9c5146104ce578063f2fde38b1461050b578063fff614a11461053457610135565b8063715018a6146103795780638da5cb5b1461039057806395d89b41146103bb578063a22cb465146103e6578063b88d4fde1461040f57610135565b806323b872dd116100fd57806323b872dd146102335780632f745c591461025c57806342842e0e146102995780634f6ccce7146102c25780636352211e146102ff57806370a082311461033c57610135565b806301ffc9a71461013a57806306fdde0314610177578063081812fc146101a2578063095ea7b3146101df57806318160ddd14610208575b600080fd5b34801561014657600080fd5b50610161600480360381019061015c9190612a62565b61055f565b60405161016e9190612f4e565b60405180910390f35b34801561018357600080fd5b5061018c610571565b6040516101999190612f69565b60405180910390f35b3480156101ae57600080fd5b506101c960048036038101906101c49190612ab4565b610603565b6040516101d69190612eb0565b60405180910390f35b3480156101eb57600080fd5b5061020660048036038101906102019190612996565b610688565b005b34801561021457600080fd5b5061021d6107a0565b60405161022a919061322b565b60405180910390f35b34801561023f57600080fd5b5061025a6004803603810190610255919061283c565b6107ad565b005b34801561026857600080fd5b50610283600480360381019061027e9190612996565b61080d565b604051610290919061322b565b60405180910390f35b3480156102a557600080fd5b506102c060048036038101906102bb919061283c565b6108b2565b005b3480156102ce57600080fd5b506102e960048036038101906102e49190612ab4565b6108d2565b6040516102f6919061322b565b60405180910390f35b34801561030b57600080fd5b5061032660048036038101906103219190612ab4565b610969565b6040516103339190612eb0565b60405180910390f35b34801561034857600080fd5b50610363600480360381019061035e91906127d7565b610a1b565b604051610370919061322b565b60405180910390f35b34801561038557600080fd5b5061038e610ad3565b005b34801561039c57600080fd5b506103a5610b5b565b6040516103b29190612eb0565b60405180910390f35b3480156103c757600080fd5b506103d0610b85565b6040516103dd9190612f69565b60405180910390f35b3480156103f257600080fd5b5061040d60048036038101906104089190612906565b610c17565b005b34801561041b57600080fd5b506104366004803603810190610431919061288b565b610c2d565b005b34801561044457600080fd5b5061045f600480360381019061045a9190612ab4565b610c8f565b60405161046c9190612f69565b60405180910390f35b61048f600480360381019061048a91906129d2565b610ca1565b60405161049c919061322b565b60405180910390f35b3480156104b157600080fd5b506104cc60048036038101906104c79190612942565b610dca565b005b3480156104da57600080fd5b506104f560048036038101906104f09190612800565b610e77565b6040516105029190612f4e565b60405180910390f35b34801561051757600080fd5b50610532600480360381019061052d91906127d7565b610f0b565b005b34801561054057600080fd5b50610549611003565b604051610556919061322b565b60405180910390f35b600061056a82611017565b9050919050565b60606000805461058090613481565b80601f01602080910402602001604051908101604052809291908181526020018280546105ac90613481565b80156105f95780601f106105ce576101008083540402835291602001916105f9565b820191906000526020600020905b8154815290600101906020018083116105dc57829003601f168201915b5050505050905090565b600061060e82611091565b61064d576040517f08c379a00000000000000000000000000000000000000000000000000000000081526004016106449061314b565b60405180910390fd5b6004600083815260200190815260200160002060009054906101000a900473ffffffffffffffffffffffffffffffffffffffff169050919050565b600061069382610969565b90508073ffffffffffffffffffffffffffffffffffffffff168373ffffffffffffffffffffffffffffffffffffffff161415610704576040517f08c379a00000000000000000000000000000000000000000000000000000000081526004016106fb906131ab565b60405180910390fd5b8073ffffffffffffffffffffffffffffffffffffffff166107236110fd565b73ffffffffffffffffffffffffffffffffffffffff16148061075257506107518161074c6110fd565b610e77565b5b610791576040517f08c379a00000000000000000000000000000000000000000000000000000000081526004016107889061308b565b60405180910390fd5b61079b8383611105565b505050565b6000600880549050905090565b6107be6107b86110fd565b826111be565b6107fd576040517f08c379a00000000000000000000000000000000000000000000000000000000081526004016107f4906131eb565b60405180910390fd5b61080883838361129c565b505050565b600061081883610a1b565b8210610859576040517f08c379a000000000000000000000000000000000000000000000000000000000815260040161085090612f8b565b60405180910390fd5b600660008473ffffffffffffffffffffffffffffffffffffffff1673ffffffffffffffffffffffffffffffffffffffff168152602001908152602001600020600083815260200190815260200160002054905092915050565b6108cd83838360405180602001604052806000815250610c2d565b505050565b60006108dc6107a0565b821061091d576040517f08c379a00000000000000000000000000000000000000000000000000000000081526004016109149061320b565b60405180910390fd5b60088281548110610957577f4e487b7100000000000000000000000000000000000000000000000000000000600052603260045260246000fd5b90600052602060002001549050919050565b6000806002600084815260200190815260200160002060009054906101000a900473ffffffffffffffffffffffffffffffffffffffff169050600073ffffffffffffffffffffffffffffffffffffffff168173ffffffffffffffffffffffffffffffffffffffff161415610a12576040517f08c379a0000000000000000000000000000000000000000000000000000000008152600401610a09906130cb565b60405180910390fd5b80915050919050565b60008073ffffffffffffffffffffffffffffffffffffffff168273ffffffffffffffffffffffffffffffffffffffff161415610a8c576040517f08c379a0000000000000000000000000000000000000000000000000000000008152600401610a83906130ab565b60405180910390fd5b600360008373ffffffffffffffffffffffffffffffffffffffff1673ffffffffffffffffffffffffffffffffffffffff168152602001908152602001600020549050919050565b610adb6110fd565b73ffffffffffffffffffffffffffffffffffffffff16610af9610b5b565b73ffffffffffffffffffffffffffffffffffffffff1614610b4f576040517f08c379a0000000000000000000000000000000000000000000000000000000008152600401610b469061316b565b60405180910390fd5b610b596000611503565b565b6000600b60009054906101000a900473ffffffffffffffffffffffffffffffffffffffff16905090565b606060018054610b9490613481565b80601f0160208091040260200160405190810160405280929190818152602001828054610bc090613481565b8015610c0d5780601f10610be257610100808354040283529160200191610c0d565b820191906000526020600020905b815481529060010190602001808311610bf057829003601f168201915b5050505050905090565b610c29610c226110fd565b83836115c9565b5050565b610c3e610c386110fd565b836111be565b610c7d576040517f08c379a0000000000000000000000000000000000000000000000000000000008152600401610c74906131eb565b60405180910390fd5b610c8984848484611736565b50505050565b6060610c9a82611792565b9050919050565b6000600c60009054906101000a900473ffffffffffffffffffffffffffffffffffffffff1673ffffffffffffffffffffffffffffffffffffffff166323b872dd3386866040518463ffffffff1660e01b8152600401610d0293929190612ecb565b602060405180830381600087803b158015610d1c57600080fd5b505af1158015610d30573d6000803e3d6000fd5b505050506040513d601f19601f82011682018060405250810190610d549190612a39565b610d93576040517f08c379a0000000000000000000000000000000000000000000000000000000008152600401610d8a906131cb565b60405180910390fd5b6000610d9f600d6118e4565b9050610dab600d6118f2565b610db53382611908565b610dbf8184611ae2565b809150509392505050565b610dd26110fd565b73ffffffffffffffffffffffffffffffffffffffff16610df0610b5b565b73ffffffffffffffffffffffffffffffffffffffff1614610e46576040517f08c379a0000000000000000000000000000000000000000000000000000000008152600401610e3d9061316b565b60405180910390fd5b6000610e52600d6118e4565b9050610e5e600d6118f2565b610e688382611b56565b610e728183611ae2565b505050565b6000600560008473ffffffffffffffffffffffffffffffffffffffff1673ffffffffffffffffffffffffffffffffffffffff16815260200190815260200160002060008373ffffffffffffffffffffffffffffffffffffffff1673ffffffffffffffffffffffffffffffffffffffff16815260200190815260200160002060009054906101000a900460ff16905092915050565b610f136110fd565b73ffffffffffffffffffffffffffffffffffffffff16610f31610b5b565b73ffffffffffffffffffffffffffffffffffffffff1614610f87576040517f08c379a0000000000000000000000000000000000000000000000000000000008152600401610f7e9061316b565b60405180910390fd5b600073ffffffffffffffffffffffffffffffffffffffff168173ffffffffffffffffffffffffffffffffffffffff161415610ff7576040517f08c379a0000000000000000000000000000000000000000000000000000000008152600401610fee90612fcb565b60405180910390fd5b61100081611503565b50565b60008061100e6107a0565b90508091505090565b60007f780e9d63000000000000000000000000000000000000000000000000000000007bffffffffffffffffffffffffffffffffffffffffffffffffffffffff1916827bffffffffffffffffffffffffffffffffffffffffffffffffffffffff1916148061108a575061108982611b74565b5b9050919050565b60008073ffffffffffffffffffffffffffffffffffffffff166002600084815260200190815260200160002060009054906101000a900473ffffffffffffffffffffffffffffffffffffffff1673ffffffffffffffffffffffffffffffffffffffff1614159050919050565b600033905090565b816004600083815260200190815260200160002060006101000a81548173ffffffffffffffffffffffffffffffffffffffff021916908373ffffffffffffffffffffffffffffffffffffffff160217905550808273ffffffffffffffffffffffffffffffffffffffff1661117883610969565b73ffffffffffffffffffffffffffffffffffffffff167f8c5be1e5ebec7d5bd14f71427d1e84f3dd0314c0f7b2291e5b200ac8c7c3b92560405160405180910390a45050565b60006111c982611091565b611208576040517f08c379a00000000000000000000000000000000000000000000000000000000081526004016111ff9061306b565b60405180910390fd5b600061121383610969565b90508073ffffffffffffffffffffffffffffffffffffffff168473ffffffffffffffffffffffffffffffffffffffff16148061125557506112548185610e77565b5b8061129357508373ffffffffffffffffffffffffffffffffffffffff1661127b84610603565b73ffffffffffffffffffffffffffffffffffffffff16145b91505092915050565b8273ffffffffffffffffffffffffffffffffffffffff166112bc82610969565b73ffffffffffffffffffffffffffffffffffffffff1614611312576040517f08c379a000000000000000000000000000000000000000000000000000000000815260040161130990612feb565b60405180910390fd5b600073ffffffffffffffffffffffffffffffffffffffff168273ffffffffffffffffffffffffffffffffffffffff161415611382576040517f08c379a00000000000000000000000000000000000000000000000000000000081526004016113799061302b565b60405180910390fd5b61138d838383611c56565b611398600082611105565b6001600360008573ffffffffffffffffffffffffffffffffffffffff1673ffffffffffffffffffffffffffffffffffffffff16815260200190815260200160002060008282546113e89190613397565b925050819055506001600360008473ffffffffffffffffffffffffffffffffffffffff1673ffffffffffffffffffffffffffffffffffffffff168152602001908152602001600020600082825461143f9190613310565b92505081905550816002600083815260200190815260200160002060006101000a81548173ffffffffffffffffffffffffffffffffffffffff021916908373ffffffffffffffffffffffffffffffffffffffff160217905550808273ffffffffffffffffffffffffffffffffffffffff168473ffffffffffffffffffffffffffffffffffffffff167fddf252ad1be2c89b69c2b068fc378daa952ba7f163c4a11628f55a4df523b3ef60405160405180910390a46114fe838383611c66565b505050565b6000600b60009054906101000a900473ffffffffffffffffffffffffffffffffffffffff16905081600b60006101000a81548173ffffffffffffffffffffffffffffffffffffffff021916908373ffffffffffffffffffffffffffffffffffffffff1602179055508173ffffffffffffffffffffffffffffffffffffffff168173ffffffffffffffffffffffffffffffffffffffff167f8be0079c531659141344cd1fd0a4f28419497f9722a3daafe3b4186f6b6457e060405160405180910390a35050565b8173ffffffffffffffffffffffffffffffffffffffff168373ffffffffffffffffffffffffffffffffffffffff161415611638576040517f08c379a000000000000000000000000000000000000000000000000000000000815260040161162f9061304b565b60405180910390fd5b80600560008573ffffffffffffffffffffffffffffffffffffffff1673ffffffffffffffffffffffffffffffffffffffff16815260200190815260200160002060008473ffffffffffffffffffffffffffffffffffffffff1673ffffffffffffffffffffffffffffffffffffffff16815260200190815260200160002060006101000a81548160ff0219169083151502179055508173ffffffffffffffffffffffffffffffffffffffff168373ffffffffffffffffffffffffffffffffffffffff167f17307eab39ab6107e8899845ad3d59bd9653f200f220920489ca2b5937696c31836040516117299190612f4e565b60405180910390a3505050565b61174184848461129c565b61174d84848484611c6b565b61178c576040517f08c379a000000000000000000000000000000000000000000000000000000000815260040161178390612fab565b60405180910390fd5b50505050565b606061179d82611091565b6117dc576040517f08c379a00000000000000000000000000000000000000000000000000000000081526004016117d39061312b565b60405180910390fd5b6000600a600084815260200190815260200160002080546117fc90613481565b80601f016020809104026020016040519081016040528092919081815260200182805461182890613481565b80156118755780601f1061184a57610100808354040283529160200191611875565b820191906000526020600020905b81548152906001019060200180831161185857829003601f168201915b505050505090506000611886611e02565b905060008151141561189c5781925050506118df565b6000825111156118d15780826040516020016118b9929190612e8c565b604051602081830303815290604052925050506118df565b6118da84611e19565b925050505b919050565b600081600001549050919050565b6001816000016000828254019250508190555050565b600073ffffffffffffffffffffffffffffffffffffffff168273ffffffffffffffffffffffffffffffffffffffff161415611978576040517f08c379a000000000000000000000000000000000000000000000000000000000815260040161196f9061310b565b60405180910390fd5b61198181611091565b156119c1576040517f08c379a00000000000000000000000000000000000000000000000000000000081526004016119b89061300b565b60405180910390fd5b6119cd60008383611c56565b6001600360008473ffffffffffffffffffffffffffffffffffffffff1673ffffffffffffffffffffffffffffffffffffffff1681526020019081526020016000206000828254611a1d9190613310565b92505081905550816002600083815260200190815260200160002060006101000a81548173ffffffffffffffffffffffffffffffffffffffff021916908373ffffffffffffffffffffffffffffffffffffffff160217905550808273ffffffffffffffffffffffffffffffffffffffff16600073ffffffffffffffffffffffffffffffffffffffff167fddf252ad1be2c89b69c2b068fc378daa952ba7f163c4a11628f55a4df523b3ef60405160405180910390a4611ade60008383611c66565b5050565b611aeb82611091565b611b2a576040517f08c379a0000000000000000000000000000000000000000000000000000000008152600401611b21906130eb565b60405180910390fd5b80600a60008481526020019081526020016000209080519060200190611b519291906125e6565b505050565b611b70828260405180602001604052806000815250611ec0565b5050565b60007f80ac58cd000000000000000000000000000000000000000000000000000000007bffffffffffffffffffffffffffffffffffffffffffffffffffffffff1916827bffffffffffffffffffffffffffffffffffffffffffffffffffffffff19161480611c3f57507f5b5e139f000000000000000000000000000000000000000000000000000000007bffffffffffffffffffffffffffffffffffffffffffffffffffffffff1916827bffffffffffffffffffffffffffffffffffffffffffffffffffffffff1916145b80611c4f5750611c4e82611f1b565b5b9050919050565b611c61838383611f85565b505050565b505050565b6000611c8c8473ffffffffffffffffffffffffffffffffffffffff16612099565b15611df5578373ffffffffffffffffffffffffffffffffffffffff1663150b7a02611cb56110fd565b8786866040518563ffffffff1660e01b8152600401611cd79493929190612f02565b602060405180830381600087803b158015611cf157600080fd5b505af1925050508015611d2257506040513d601f19601f82011682018060405250810190611d1f9190612a8b565b60015b611da5573d8060008114611d52576040519150601f19603f3d011682016040523d82523d6000602084013e611d57565b606091505b50600081511415611d9d576040517f08c379a0000000000000000000000000000000000000000000000000000000008152600401611d9490612fab565b60405180910390fd5b805181602001fd5b63150b7a0260e01b7bffffffffffffffffffffffffffffffffffffffffffffffffffffffff1916817bffffffffffffffffffffffffffffffffffffffffffffffffffffffff191614915050611dfa565b600190505b949350505050565b606060405180602001604052806000815250905090565b6060611e2482611091565b611e63576040517f08c379a0000000000000000000000000000000000000000000000000000000008152600401611e5a9061318b565b60405180910390fd5b6000611e6d611e02565b90506000815111611e8d5760405180602001604052806000815250611eb8565b80611e97846120bc565b604051602001611ea8929190612e8c565b6040516020818303038152906040525b915050919050565b611eca8383611908565b611ed76000848484611c6b565b611f16576040517f08c379a0000000000000000000000000000000000000000000000000000000008152600401611f0d90612fab565b60405180910390fd5b505050565b60007f01ffc9a7000000000000000000000000000000000000000000000000000000007bffffffffffffffffffffffffffffffffffffffffffffffffffffffff1916827bffffffffffffffffffffffffffffffffffffffffffffffffffffffff1916149050919050565b611f90838383612269565b600073ffffffffffffffffffffffffffffffffffffffff168373ffffffffffffffffffffffffffffffffffffffff161415611fd357611fce8161226e565b612012565b8173ffffffffffffffffffffffffffffffffffffffff168373ffffffffffffffffffffffffffffffffffffffff16146120115761201083826122b7565b5b5b600073ffffffffffffffffffffffffffffffffffffffff168273ffffffffffffffffffffffffffffffffffffffff1614156120555761205081612424565b612094565b8273ffffffffffffffffffffffffffffffffffffffff168273ffffffffffffffffffffffffffffffffffffffff1614612093576120928282612567565b5b5b505050565b6000808273ffffffffffffffffffffffffffffffffffffffff163b119050919050565b60606000821415612104576040518060400160405280600181526020017f30000000000000000000000000000000000000000000000000000000000000008152509050612264565b600082905060005b6000821461213657808061211f906134e4565b915050600a8261212f9190613366565b915061210c565b60008167ffffffffffffffff811115612178577f4e487b7100000000000000000000000000000000000000000000000000000000600052604160045260246000fd5b6040519080825280601f01601f1916602001820160405280156121aa5781602001600182028036833780820191505090505b5090505b6000851461225d576001826121c39190613397565b9150600a856121d2919061352d565b60306121de9190613310565b60f81b81838151811061221a577f4e487b7100000000000000000000000000000000000000000000000000000000600052603260045260246000fd5b60200101907effffffffffffffffffffffffffffffffffffffffffffffffffffffffffffff1916908160001a905350600a856122569190613366565b94506121ae565b8093505050505b919050565b505050565b6008805490506009600083815260200190815260200160002081905550600881908060018154018082558091505060019003906000526020600020016000909190919091505550565b600060016122c484610a1b565b6122ce9190613397565b90506000600760008481526020019081526020016000205490508181146123b3576000600660008673ffffffffffffffffffffffffffffffffffffffff1673ffffffffffffffffffffffffffffffffffffffff168152602001908152602001600020600084815260200190815260200160002054905080600660008773ffffffffffffffffffffffffffffffffffffffff1673ffffffffffffffffffffffffffffffffffffffff168152602001908152602001600020600084815260200190815260200160002081905550816007600083815260200190815260200160002081905550505b6007600084815260200190815260200160002060009055600660008573ffffffffffffffffffffffffffffffffffffffff1673ffffffffffffffffffffffffffffffffffffffff16815260200190815260200160002060008381526020019081526020016000206000905550505050565b600060016008805490506124389190613397565b905060006009600084815260200190815260200160002054905060006008838154811061248e577f4e487b7100000000000000000000000000000000000000000000000000000000600052603260045260246000fd5b9060005260206000200154905080600883815481106124d6577f4e487b7100000000000000000000000000000000000000000000000000000000600052603260045260246000fd5b90600052602060002001819055508160096000838152602001908152602001600020819055506009600085815260200190815260200160002060009055600880548061254b577f4e487b7100000000000000000000000000000000000000000000000000000000600052603160045260246000fd5b6001900381819060005260206000200160009055905550505050565b600061257283610a1b565b905081600660008573ffffffffffffffffffffffffffffffffffffffff1673ffffffffffffffffffffffffffffffffffffffff168152602001908152602001600020600083815260200190815260200160002081905550806007600084815260200190815260200160002081905550505050565b8280546125f290613481565b90600052602060002090601f016020900481019282612614576000855561265b565b82601f1061262d57805160ff191683800117855561265b565b8280016001018555821561265b579182015b8281111561265a57825182559160200191906001019061263f565b5b509050612668919061266c565b5090565b5b8082111561268557600081600090555060010161266d565b5090565b600061269c6126978461326b565b613246565b9050828152602081018484840111156126b457600080fd5b6126bf84828561343f565b509392505050565b60006126da6126d58461329c565b613246565b9050828152602081018484840111156126f257600080fd5b6126fd84828561343f565b509392505050565b60008135905061271481613be8565b92915050565b60008135905061272981613bff565b92915050565b60008151905061273e81613bff565b92915050565b60008135905061275381613c16565b92915050565b60008151905061276881613c16565b92915050565b600082601f83011261277f57600080fd5b813561278f848260208601612689565b91505092915050565b600082601f8301126127a957600080fd5b81356127b98482602086016126c7565b91505092915050565b6000813590506127d181613c2d565b92915050565b6000602082840312156127e957600080fd5b60006127f784828501612705565b91505092915050565b6000806040838503121561281357600080fd5b600061282185828601612705565b925050602061283285828601612705565b9150509250929050565b60008060006060848603121561285157600080fd5b600061285f86828701612705565b935050602061287086828701612705565b9250506040612881868287016127c2565b9150509250925092565b600080600080608085870312156128a157600080fd5b60006128af87828801612705565b94505060206128c087828801612705565b93505060406128d1878288016127c2565b925050606085013567ffffffffffffffff8111156128ee57600080fd5b6128fa8782880161276e565b91505092959194509250565b6000806040838503121561291957600080fd5b600061292785828601612705565b92505060206129388582860161271a565b9150509250929050565b6000806040838503121561295557600080fd5b600061296385828601612705565b925050602083013567ffffffffffffffff81111561298057600080fd5b61298c85828601612798565b9150509250929050565b600080604083850312156129a957600080fd5b60006129b785828601612705565b92505060206129c8858286016127c2565b9150509250929050565b6000806000606084860312156129e757600080fd5b60006129f586828701612705565b9350506020612a06868287016127c2565b925050604084013567ffffffffffffffff811115612a2357600080fd5b612a2f86828701612798565b9150509250925092565b600060208284031215612a4b57600080fd5b6000612a598482850161272f565b91505092915050565b600060208284031215612a7457600080fd5b6000612a8284828501612744565b91505092915050565b600060208284031215612a9d57600080fd5b6000612aab84828501612759565b91505092915050565b600060208284031215612ac657600080fd5b6000612ad4848285016127c2565b91505092915050565b612ae6816133cb565b82525050565b612af5816133dd565b82525050565b6000612b06826132cd565b612b1081856132e3565b9350612b2081856020860161344e565b612b298161361a565b840191505092915050565b6000612b3f826132d8565b612b4981856132f4565b9350612b5981856020860161344e565b612b628161361a565b840191505092915050565b6000612b78826132d8565b612b828185613305565b9350612b9281856020860161344e565b80840191505092915050565b6000612bab602b836132f4565b9150612bb68261362b565b604082019050919050565b6000612bce6032836132f4565b9150612bd98261367a565b604082019050919050565b6000612bf16026836132f4565b9150612bfc826136c9565b604082019050919050565b6000612c146025836132f4565b9150612c1f82613718565b604082019050919050565b6000612c37601c836132f4565b9150612c4282613767565b602082019050919050565b6000612c5a6024836132f4565b9150612c6582613790565b604082019050919050565b6000612c7d6019836132f4565b9150612c88826137df565b602082019050919050565b6000612ca0602c836132f4565b9150612cab82613808565b604082019050919050565b6000612cc36038836132f4565b9150612cce82613857565b604082019050919050565b6000612ce6602a836132f4565b9150612cf1826138a6565b604082019050919050565b6000612d096029836132f4565b9150612d14826138f5565b604082019050919050565b6000612d2c602e836132f4565b9150612d3782613944565b604082019050919050565b6000612d4f6020836132f4565b9150612d5a82613993565b602082019050919050565b6000612d726031836132f4565b9150612d7d826139bc565b604082019050919050565b6000612d95602c836132f4565b9150612da082613a0b565b604082019050919050565b6000612db86020836132f4565b9150612dc382613a5a565b602082019050919050565b6000612ddb602f836132f4565b9150612de682613a83565b604082019050919050565b6000612dfe6021836132f4565b9150612e0982613ad2565b604082019050919050565b6000612e216010836132f4565b9150612e2c82613b21565b602082019050919050565b6000612e446031836132f4565b9150612e4f82613b4a565b604082019050919050565b6000612e67602c836132f4565b9150612e7282613b99565b604082019050919050565b612e8681613435565b82525050565b6000612e988285612b6d565b9150612ea48284612b6d565b91508190509392505050565b6000602082019050612ec56000830184612add565b92915050565b6000606082019050612ee06000830186612add565b612eed6020830185612add565b612efa6040830184612e7d565b949350505050565b6000608082019050612f176000830187612add565b612f246020830186612add565b612f316040830185612e7d565b8181036060830152612f438184612afb565b905095945050505050565b6000602082019050612f636000830184612aec565b92915050565b60006020820190508181036000830152612f838184612b34565b905092915050565b60006020820190508181036000830152612fa481612b9e565b9050919050565b60006020820190508181036000830152612fc481612bc1565b9050919050565b60006020820190508181036000830152612fe481612be4565b9050919050565b6000602082019050818103600083015261300481612c07565b9050919050565b6000602082019050818103600083015261302481612c2a565b9050919050565b6000602082019050818103600083015261304481612c4d565b9050919050565b6000602082019050818103600083015261306481612c70565b9050919050565b6000602082019050818103600083015261308481612c93565b9050919050565b600060208201905081810360008301526130a481612cb6565b9050919050565b600060208201905081810360008301526130c481612cd9565b9050919050565b600060208201905081810360008301526130e481612cfc565b9050919050565b6000602082019050818103600083015261310481612d1f565b9050919050565b6000602082019050818103600083015261312481612d42565b9050919050565b6000602082019050818103600083015261314481612d65565b9050919050565b6000602082019050818103600083015261316481612d88565b9050919050565b6000602082019050818103600083015261318481612dab565b9050919050565b600060208201905081810360008301526131a481612dce565b9050919050565b600060208201905081810360008301526131c481612df1565b9050919050565b600060208201905081810360008301526131e481612e14565b9050919050565b6000602082019050818103600083015261320481612e37565b9050919050565b6000602082019050818103600083015261322481612e5a565b9050919050565b60006020820190506132406000830184612e7d565b92915050565b6000613250613261565b905061325c82826134b3565b919050565b6000604051905090565b600067ffffffffffffffff821115613286576132856135eb565b5b61328f8261361a565b9050602081019050919050565b600067ffffffffffffffff8211156132b7576132b66135eb565b5b6132c08261361a565b9050602081019050919050565b600081519050919050565b600081519050919050565b600082825260208201905092915050565b600082825260208201905092915050565b600081905092915050565b600061331b82613435565b915061332683613435565b9250827fffffffffffffffffffffffffffffffffffffffffffffffffffffffffffffffff0382111561335b5761335a61355e565b5b828201905092915050565b600061337182613435565b915061337c83613435565b92508261338c5761338b61358d565b5b828204905092915050565b60006133a282613435565b91506133ad83613435565b9250828210156133c0576133bf61355e565b5b828203905092915050565b60006133d682613415565b9050919050565b60008115159050919050565b60007fffffffff0000000000000000000000000000000000000000000000000000000082169050919050565b600073ffffffffffffffffffffffffffffffffffffffff82169050919050565b6000819050919050565b82818337600083830152505050565b60005b8381101561346c578082015181840152602081019050613451565b8381111561347b576000848401525b50505050565b6000600282049050600182168061349957607f821691505b602082108114156134ad576134ac6135bc565b5b50919050565b6134bc8261361a565b810181811067ffffffffffffffff821117156134db576134da6135eb565b5b80604052505050565b60006134ef82613435565b91507fffffffffffffffffffffffffffffffffffffffffffffffffffffffffffffffff8214156135225761352161355e565b5b600182019050919050565b600061353882613435565b915061354383613435565b9250826135535761355261358d565b5b828206905092915050565b7f4e487b7100000000000000000000000000000000000000000000000000000000600052601160045260246000fd5b7f4e487b7100000000000000000000000000000000000000000000000000000000600052601260045260246000fd5b7f4e487b7100000000000000000000000000000000000000000000000000000000600052602260045260246000fd5b7f4e487b7100000000000000000000000000000000000000000000000000000000600052604160045260246000fd5b6000601f19601f8301169050919050565b7f455243373231456e756d657261626c653a206f776e657220696e646578206f7560008201527f74206f6620626f756e6473000000000000000000000000000000000000000000602082015250565b7f4552433732313a207472616e7366657220746f206e6f6e20455243373231526560008201527f63656976657220696d706c656d656e7465720000000000000000000000000000602082015250565b7f4f776e61626c653a206e6577206f776e657220697320746865207a65726f206160008201527f6464726573730000000000000000000000000000000000000000000000000000602082015250565b7f4552433732313a207472616e736665722066726f6d20696e636f72726563742060008201527f6f776e6572000000000000000000000000000000000000000000000000000000602082015250565b7f4552433732313a20746f6b656e20616c7265616479206d696e74656400000000600082015250565b7f4552433732313a207472616e7366657220746f20746865207a65726f2061646460008201527f7265737300000000000000000000000000000000000000000000000000000000602082015250565b7f4552433732313a20617070726f766520746f2063616c6c657200000000000000600082015250565b7f4552433732313a206f70657261746f7220717565727920666f72206e6f6e657860008201527f697374656e7420746f6b656e0000000000000000000000000000000000000000602082015250565b7f4552433732313a20617070726f76652063616c6c6572206973206e6f74206f7760008201527f6e6572206e6f7220617070726f76656420666f7220616c6c0000000000000000602082015250565b7f4552433732313a2062616c616e636520717565727920666f7220746865207a6560008201527f726f206164647265737300000000000000000000000000000000000000000000602082015250565b7f4552433732313a206f776e657220717565727920666f72206e6f6e657869737460008201527f656e7420746f6b656e0000000000000000000000000000000000000000000000602082015250565b7f45524337323155524953746f726167653a2055524920736574206f66206e6f6e60008201527f6578697374656e7420746f6b656e000000000000000000000000000000000000602082015250565b7f4552433732313a206d696e7420746f20746865207a65726f2061646472657373600082015250565b7f45524337323155524953746f726167653a2055524920717565727920666f722060008201527f6e6f6e6578697374656e7420746f6b656e000000000000000000000000000000602082015250565b7f4552433732313a20617070726f76656420717565727920666f72206e6f6e657860008201527f697374656e7420746f6b656e0000000000000000000000000000000000000000602082015250565b7f4f776e61626c653a2063616c6c6572206973206e6f7420746865206f776e6572600082015250565b7f4552433732314d657461646174613a2055524920717565727920666f72206e6f60008201527f6e6578697374656e7420746f6b656e0000000000000000000000000000000000602082015250565b7f4552433732313a20617070726f76616c20746f2063757272656e74206f776e6560008201527f7200000000000000000000000000000000000000000000000000000000000000602082015250565b7f5472616e73666572206661696c65642e00000000000000000000000000000000600082015250565b7f4552433732313a207472616e736665722063616c6c6572206973206e6f74206f60008201527f776e6572206e6f7220617070726f766564000000000000000000000000000000602082015250565b7f455243373231456e756d657261626c653a20676c6f62616c20696e646578206f60008201527f7574206f6620626f756e64730000000000000000000000000000000000000000602082015250565b613bf1816133cb565b8114613bfc57600080fd5b50565b613c08816133dd565b8114613c1357600080fd5b50565b613c1f816133e9565b8114613c2a57600080fd5b50565b613c3681613435565b8114613c4157600080fd5b5056fea264697066735822122033fdca6f0227e9c88f07f01b3fba2cb1dff8dacd79081240d85c8b54496bb15564736f6c63430008040033",
  "linkReferences": {},
  "deployedLinkReferences": {}
}