{
  "_format": "hh-sol-artifact-1",
  "contractName": "MyNFT",
  "sourceName": "contracts/MyNFT.sol",
  "abi": [
    {
      "inputs": [],
      "stateMutability": "nonpayable",
      "type": "constructor"
    },
    {
      "anonymous": false,
      "inputs": [
        {
          "indexed": true,
          "internalType": "address",
          "name": "owner",
          "type": "address"
        },
        {
          "indexed": true,
          "internalType": "address",
          "name": "approved",
          "type": "address"
        },
        {
          "indexed": true,
          "internalType": "uint256",
          "name": "tokenId",
          "type": "uint256"
        }
      ],
      "name": "Approval",
      "type": "event"
    },
    {
      "anonymous": false,
      "inputs": [
        {
          "indexed": true,
          "internalType": "address",
          "name": "owner",
          "type": "address"
        },
        {
          "indexed": true,
          "internalType": "address",
          "name": "operator",
          "type": "address"
        },
        {
          "indexed": false,
          "internalType": "bool",
          "name": "approved",
          "type": "bool"
        }
      ],
      "name": "ApprovalForAll",
      "type": "event"
    },
    {
      "anonymous": false,
      "inputs": [
        {
          "indexed": true,
          "internalType": "address",
          "name": "previousOwner",
          "type": "address"
        },
        {
          "indexed": true,
          "internalType": "address",
          "name": "newOwner",
          "type": "address"
        }
      ],
      "name": "OwnershipTransferred",
      "type": "event"
    },
    {
      "anonymous": false,
      "inputs": [
        {
          "indexed": true,
          "internalType": "address",
          "name": "from",
          "type": "address"
        },
        {
          "indexed": true,
          "internalType": "address",
          "name": "to",
          "type": "address"
        },
        {
          "indexed": true,
          "internalType": "uint256",
          "name": "tokenId",
          "type": "uint256"
        }
      ],
      "name": "Transfer",
      "type": "event"
    },
    {
      "inputs": [
        {
          "internalType": "address",
          "name": "to",
          "type": "address"
        },
        {
          "internalType": "uint256",
          "name": "tokenId",
          "type": "uint256"
        }
      ],
      "name": "approve",
      "outputs": [],
      "stateMutability": "nonpayable",
      "type": "function"
    },
    {
      "inputs": [
        {
          "internalType": "address",
          "name": "owner",
          "type": "address"
        }
      ],
      "name": "balanceOf",
      "outputs": [
        {
          "internalType": "uint256",
          "name": "",
          "type": "uint256"
        }
      ],
      "stateMutability": "view",
      "type": "function"
    },
    {
      "inputs": [
        {
          "internalType": "uint256",
          "name": "tokenId",
          "type": "uint256"
        }
      ],
      "name": "getApproved",
      "outputs": [
        {
          "internalType": "address",
          "name": "",
          "type": "address"
        }
      ],
      "stateMutability": "view",
      "type": "function"
    },
    {
      "inputs": [
        {
          "internalType": "address",
          "name": "owner",
          "type": "address"
        },
        {
          "internalType": "address",
          "name": "operator",
          "type": "address"
        }
      ],
      "name": "isApprovedForAll",
      "outputs": [
        {
          "internalType": "bool",
          "name": "",
          "type": "bool"
        }
      ],
      "stateMutability": "view",
      "type": "function"
    },
    {
      "inputs": [],
      "name": "name",
      "outputs": [
        {
          "internalType": "string",
          "name": "",
          "type": "string"
        }
      ],
      "stateMutability": "view",
      "type": "function"
    },
    {
      "inputs": [],
      "name": "numberofNFTMinted",
      "outputs": [
        {
          "internalType": "uint256",
          "name": "",
          "type": "uint256"
        }
      ],
      "stateMutability": "view",
      "type": "function"
    },
    {
      "inputs": [],
      "name": "owner",
      "outputs": [
        {
          "internalType": "address",
          "name": "",
          "type": "address"
        }
      ],
      "stateMutability": "view",
      "type": "function"
    },
    {
      "inputs": [
        {
          "internalType": "uint256",
          "name": "tokenId",
          "type": "uint256"
        }
      ],
      "name": "ownerOf",
      "outputs": [
        {
          "internalType": "address",
          "name": "",
          "type": "address"
        }
      ],
      "stateMutability": "view",
      "type": "function"
    },
    {
      "inputs": [],
      "name": "renounceOwnership",
      "outputs": [],
      "stateMutability": "nonpayable",
      "type": "function"
    },
    {
      "inputs": [
        {
          "internalType": "string",
          "name": "uri",
          "type": "string"
        }
      ],
      "name": "safeMint",
      "outputs": [],
      "stateMutability": "payable",
      "type": "function"
    },
    {
      "inputs": [
        {
          "internalType": "address",
          "name": "from",
          "type": "address"
        },
        {
          "internalType": "address",
          "name": "to",
          "type": "address"
        },
        {
          "internalType": "uint256",
          "name": "tokenId",
          "type": "uint256"
        }
      ],
      "name": "safeTransferFrom",
      "outputs": [],
      "stateMutability": "nonpayable",
      "type": "function"
    },
    {
      "inputs": [
        {
          "internalType": "address",
          "name": "from",
          "type": "address"
        },
        {
          "internalType": "address",
          "name": "to",
          "type": "address"
        },
        {
          "internalType": "uint256",
          "name": "tokenId",
          "type": "uint256"
        },
        {
          "internalType": "bytes",
          "name": "_data",
          "type": "bytes"
        }
      ],
      "name": "safeTransferFrom",
      "outputs": [],
      "stateMutability": "nonpayable",
      "type": "function"
    },
    {
      "inputs": [
        {
          "internalType": "address",
          "name": "operator",
          "type": "address"
        },
        {
          "internalType": "bool",
          "name": "approved",
          "type": "bool"
        }
      ],
      "name": "setApprovalForAll",
      "outputs": [],
      "stateMutability": "nonpayable",
      "type": "function"
    },
    {
      "inputs": [
        {
          "internalType": "bytes4",
          "name": "interfaceId",
          "type": "bytes4"
        }
      ],
      "name": "supportsInterface",
      "outputs": [
        {
          "internalType": "bool",
          "name": "",
          "type": "bool"
        }
      ],
      "stateMutability": "view",
      "type": "function"
    },
    {
      "inputs": [],
      "name": "symbol",
      "outputs": [
        {
          "internalType": "string",
          "name": "",
          "type": "string"
        }
      ],
      "stateMutability": "view",
      "type": "function"
    },
    {
      "inputs": [
        {
          "internalType": "uint256",
          "name": "index",
          "type": "uint256"
        }
      ],
      "name": "tokenByIndex",
      "outputs": [
        {
          "internalType": "uint256",
          "name": "",
          "type": "uint256"
        }
      ],
      "stateMutability": "view",
      "type": "function"
    },
    {
      "inputs": [
        {
          "internalType": "address",
          "name": "owner",
          "type": "address"
        },
        {
          "internalType": "uint256",
          "name": "index",
          "type": "uint256"
        }
      ],
      "name": "tokenOfOwnerByIndex",
      "outputs": [
        {
          "internalType": "uint256",
          "name": "",
          "type": "uint256"
        }
      ],
      "stateMutability": "view",
      "type": "function"
    },
    {
      "inputs": [
        {
          "internalType": "uint256",
          "name": "tokenId",
          "type": "uint256"
        }
      ],
      "name": "tokenURI",
      "outputs": [
        {
          "internalType": "string",
          "name": "",
          "type": "string"
        }
      ],
      "stateMutability": "view",
      "type": "function"
    },
    {
      "inputs": [],
      "name": "totalSupply",
      "outputs": [
        {
          "internalType": "uint256",
          "name": "",
          "type": "uint256"
        }
      ],
      "stateMutability": "view",
      "type": "function"
    },
    {
      "inputs": [
        {
          "internalType": "address",
          "name": "from",
          "type": "address"
        },
        {
          "internalType": "address",
          "name": "to",
          "type": "address"
        },
        {
          "internalType": "uint256",
          "name": "tokenId",
          "type": "uint256"
        }
      ],
      "name": "transferFrom",
      "outputs": [],
      "stateMutability": "nonpayable",
      "type": "function"
    },
    {
      "inputs": [
        {
          "internalType": "address",
          "name": "newOwner",
          "type": "address"
        }
      ],
      "name": "transferOwnership",
      "outputs": [],
      "stateMutability": "nonpayable",
      "type": "function"
    }
  ],
  "bytecode": "0x60806040523480156200001157600080fd5b506040518060400160405280601081526020017f53617665546865506c616e65744e4654000000000000000000000000000000008152506040518060400160405280600681526020017f5354504e46540000000000000000000000000000000000000000000000000000815250816000908051906020019062000096929190620001a6565b508060019080519060200190620000af929190620001a6565b505050620000d2620000c6620000d860201b60201c565b620000e060201b60201c565b620002bb565b600033905090565b6000600b60009054906101000a900473ffffffffffffffffffffffffffffffffffffffff16905081600b60006101000a81548173ffffffffffffffffffffffffffffffffffffffff021916908373ffffffffffffffffffffffffffffffffffffffff1602179055508173ffffffffffffffffffffffffffffffffffffffff168173ffffffffffffffffffffffffffffffffffffffff167f8be0079c531659141344cd1fd0a4f28419497f9722a3daafe3b4186f6b6457e060405160405180910390a35050565b828054620001b49062000256565b90600052602060002090601f016020900481019282620001d8576000855562000224565b82601f10620001f357805160ff191683800117855562000224565b8280016001018555821562000224579182015b828111156200022357825182559160200191906001019062000206565b5b50905062000233919062000237565b5090565b5b808211156200025257600081600090555060010162000238565b5090565b600060028204905060018216806200026f57607f821691505b602082108114156200028657620002856200028c565b5b50919050565b7f4e487b7100000000000000000000000000000000000000000000000000000000600052602260045260246000fd5b61398580620002cb6000396000f3fe60806040526004361061012a5760003560e01c8063695850fb116100ab578063a22cb4651161006f578063a22cb465146103f7578063b88d4fde14610420578063c87b56dd14610449578063e985e9c514610486578063f2fde38b146104c3578063fff614a1146104ec5761012a565b8063695850fb1461033157806370a082311461034d578063715018a61461038a5780638da5cb5b146103a157806395d89b41146103cc5761012a565b806323b872dd116100f257806323b872dd146102285780632f745c591461025157806342842e0e1461028e5780634f6ccce7146102b75780636352211e146102f45761012a565b806301ffc9a71461012f57806306fdde031461016c578063081812fc14610197578063095ea7b3146101d457806318160ddd146101fd575b600080fd5b34801561013b57600080fd5b50610156600480360381019061015191906127cf565b610517565b6040516101639190612ca2565b60405180910390f35b34801561017857600080fd5b50610181610529565b60405161018e9190612cbd565b60405180910390f35b3480156101a357600080fd5b506101be60048036038101906101b99190612862565b6105bb565b6040516101cb9190612c3b565b60405180910390f35b3480156101e057600080fd5b506101fb60048036038101906101f69190612793565b610640565b005b34801561020957600080fd5b50610212610758565b60405161021f9190612f5f565b60405180910390f35b34801561023457600080fd5b5061024f600480360381019061024a919061268d565b610765565b005b34801561025d57600080fd5b5061027860048036038101906102739190612793565b6107c5565b6040516102859190612f5f565b60405180910390f35b34801561029a57600080fd5b506102b560048036038101906102b0919061268d565b61086a565b005b3480156102c357600080fd5b506102de60048036038101906102d99190612862565b61088a565b6040516102eb9190612f5f565b60405180910390f35b34801561030057600080fd5b5061031b60048036038101906103169190612862565b610921565b6040516103289190612c3b565b60405180910390f35b61034b60048036038101906103469190612821565b6109d3565b005b34801561035957600080fd5b50610374600480360381019061036f9190612628565b610a57565b6040516103819190612f5f565b60405180910390f35b34801561039657600080fd5b5061039f610b0f565b005b3480156103ad57600080fd5b506103b6610b97565b6040516103c39190612c3b565b60405180910390f35b3480156103d857600080fd5b506103e1610bc1565b6040516103ee9190612cbd565b60405180910390f35b34801561040357600080fd5b5061041e60048036038101906104199190612757565b610c53565b005b34801561042c57600080fd5b50610447600480360381019061044291906126dc565b610c69565b005b34801561045557600080fd5b50610470600480360381019061046b9190612862565b610ccb565b60405161047d9190612cbd565b60405180910390f35b34801561049257600080fd5b506104ad60048036038101906104a89190612651565b610cdd565b6040516104ba9190612ca2565b60405180910390f35b3480156104cf57600080fd5b506104ea60048036038101906104e59190612628565b610d71565b005b3480156104f857600080fd5b50610501610e69565b60405161050e9190612f5f565b60405180910390f35b600061052282610e7d565b9050919050565b606060008054610538906131b5565b80601f0160208091040260200160405190810160405280929190818152602001828054610564906131b5565b80156105b15780601f10610586576101008083540402835291602001916105b1565b820191906000526020600020905b81548152906001019060200180831161059457829003601f168201915b5050505050905090565b60006105c682610ef7565b610605576040517f08c379a00000000000000000000000000000000000000000000000000000000081526004016105fc90612e9f565b60405180910390fd5b6004600083815260200190815260200160002060009054906101000a900473ffffffffffffffffffffffffffffffffffffffff169050919050565b600061064b82610921565b90508073ffffffffffffffffffffffffffffffffffffffff168373ffffffffffffffffffffffffffffffffffffffff1614156106bc576040517f08c379a00000000000000000000000000000000000000000000000000000000081526004016106b390612eff565b60405180910390fd5b8073ffffffffffffffffffffffffffffffffffffffff166106db610f63565b73ffffffffffffffffffffffffffffffffffffffff16148061070a575061070981610704610f63565b610cdd565b5b610749576040517f08c379a000000000000000000000000000000000000000000000000000000000815260040161074090612ddf565b60405180910390fd5b6107538383610f6b565b505050565b6000600880549050905090565b610776610770610f63565b82611024565b6107b5576040517f08c379a00000000000000000000000000000000000000000000000000000000081526004016107ac90612f1f565b60405180910390fd5b6107c0838383611102565b505050565b60006107d083610a57565b8210610811576040517f08c379a000000000000000000000000000000000000000000000000000000000815260040161080890612cdf565b60405180910390fd5b600660008473ffffffffffffffffffffffffffffffffffffffff1673ffffffffffffffffffffffffffffffffffffffff168152602001908152602001600020600083815260200190815260200160002054905092915050565b61088583838360405180602001604052806000815250610c69565b505050565b6000610894610758565b82106108d5576040517f08c379a00000000000000000000000000000000000000000000000000000000081526004016108cc90612f3f565b60405180910390fd5b6008828154811061090f577f4e487b7100000000000000000000000000000000000000000000000000000000600052603260045260246000fd5b90600052602060002001549050919050565b6000806002600084815260200190815260200160002060009054906101000a900473ffffffffffffffffffffffffffffffffffffffff169050600073ffffffffffffffffffffffffffffffffffffffff168173ffffffffffffffffffffffffffffffffffffffff1614156109ca576040517f08c379a00000000000000000000000000000000000000000000000000000000081526004016109c190612e1f565b60405180910390fd5b80915050919050565b60006109df600c611369565b905060006109eb610b97565b90506109f7600c611377565b610a01338361138d565b610a0b82846113ab565b8073ffffffffffffffffffffffffffffffffffffffff166108fc349081150290604051600060405180830381858888f19350505050158015610a51573d6000803e3d6000fd5b50505050565b60008073ffffffffffffffffffffffffffffffffffffffff168273ffffffffffffffffffffffffffffffffffffffff161415610ac8576040517f08c379a0000000000000000000000000000000000000000000000000000000008152600401610abf90612dff565b60405180910390fd5b600360008373ffffffffffffffffffffffffffffffffffffffff1673ffffffffffffffffffffffffffffffffffffffff168152602001908152602001600020549050919050565b610b17610f63565b73ffffffffffffffffffffffffffffffffffffffff16610b35610b97565b73ffffffffffffffffffffffffffffffffffffffff1614610b8b576040517f08c379a0000000000000000000000000000000000000000000000000000000008152600401610b8290612ebf565b60405180910390fd5b610b95600061141f565b565b6000600b60009054906101000a900473ffffffffffffffffffffffffffffffffffffffff16905090565b606060018054610bd0906131b5565b80601f0160208091040260200160405190810160405280929190818152602001828054610bfc906131b5565b8015610c495780601f10610c1e57610100808354040283529160200191610c49565b820191906000526020600020905b815481529060010190602001808311610c2c57829003601f168201915b5050505050905090565b610c65610c5e610f63565b83836114e5565b5050565b610c7a610c74610f63565b83611024565b610cb9576040517f08c379a0000000000000000000000000000000000000000000000000000000008152600401610cb090612f1f565b60405180910390fd5b610cc584848484611652565b50505050565b6060610cd6826116ae565b9050919050565b6000600560008473ffffffffffffffffffffffffffffffffffffffff1673ffffffffffffffffffffffffffffffffffffffff16815260200190815260200160002060008373ffffffffffffffffffffffffffffffffffffffff1673ffffffffffffffffffffffffffffffffffffffff16815260200190815260200160002060009054906101000a900460ff16905092915050565b610d79610f63565b73ffffffffffffffffffffffffffffffffffffffff16610d97610b97565b73ffffffffffffffffffffffffffffffffffffffff1614610ded576040517f08c379a0000000000000000000000000000000000000000000000000000000008152600401610de490612ebf565b60405180910390fd5b600073ffffffffffffffffffffffffffffffffffffffff168173ffffffffffffffffffffffffffffffffffffffff161415610e5d576040517f08c379a0000000000000000000000000000000000000000000000000000000008152600401610e5490612d1f565b60405180910390fd5b610e668161141f565b50565b600080610e74610758565b90508091505090565b60007f780e9d63000000000000000000000000000000000000000000000000000000007bffffffffffffffffffffffffffffffffffffffffffffffffffffffff1916827bffffffffffffffffffffffffffffffffffffffffffffffffffffffff19161480610ef05750610eef82611800565b5b9050919050565b60008073ffffffffffffffffffffffffffffffffffffffff166002600084815260200190815260200160002060009054906101000a900473ffffffffffffffffffffffffffffffffffffffff1673ffffffffffffffffffffffffffffffffffffffff1614159050919050565b600033905090565b816004600083815260200190815260200160002060006101000a81548173ffffffffffffffffffffffffffffffffffffffff021916908373ffffffffffffffffffffffffffffffffffffffff160217905550808273ffffffffffffffffffffffffffffffffffffffff16610fde83610921565b73ffffffffffffffffffffffffffffffffffffffff167f8c5be1e5ebec7d5bd14f71427d1e84f3dd0314c0f7b2291e5b200ac8c7c3b92560405160405180910390a45050565b600061102f82610ef7565b61106e576040517f08c379a000000000000000000000000000000000000000000000000000000000815260040161106590612dbf565b60405180910390fd5b600061107983610921565b90508073ffffffffffffffffffffffffffffffffffffffff168473ffffffffffffffffffffffffffffffffffffffff1614806110bb57506110ba8185610cdd565b5b806110f957508373ffffffffffffffffffffffffffffffffffffffff166110e1846105bb565b73ffffffffffffffffffffffffffffffffffffffff16145b91505092915050565b8273ffffffffffffffffffffffffffffffffffffffff1661112282610921565b73ffffffffffffffffffffffffffffffffffffffff1614611178576040517f08c379a000000000000000000000000000000000000000000000000000000000815260040161116f90612d3f565b60405180910390fd5b600073ffffffffffffffffffffffffffffffffffffffff168273ffffffffffffffffffffffffffffffffffffffff1614156111e8576040517f08c379a00000000000000000000000000000000000000000000000000000000081526004016111df90612d7f565b60405180910390fd5b6111f38383836118e2565b6111fe600082610f6b565b6001600360008573ffffffffffffffffffffffffffffffffffffffff1673ffffffffffffffffffffffffffffffffffffffff168152602001908152602001600020600082825461124e91906130cb565b925050819055506001600360008473ffffffffffffffffffffffffffffffffffffffff1673ffffffffffffffffffffffffffffffffffffffff16815260200190815260200160002060008282546112a59190613044565b92505081905550816002600083815260200190815260200160002060006101000a81548173ffffffffffffffffffffffffffffffffffffffff021916908373ffffffffffffffffffffffffffffffffffffffff160217905550808273ffffffffffffffffffffffffffffffffffffffff168473ffffffffffffffffffffffffffffffffffffffff167fddf252ad1be2c89b69c2b068fc378daa952ba7f163c4a11628f55a4df523b3ef60405160405180910390a46113648383836118f2565b505050565b600081600001549050919050565b6001816000016000828254019250508190555050565b6113a78282604051806020016040528060008152506118f7565b5050565b6113b482610ef7565b6113f3576040517f08c379a00000000000000000000000000000000000000000000000000000000081526004016113ea90612e3f565b60405180910390fd5b80600a6000848152602001908152602001600020908051906020019061141a92919061244c565b505050565b6000600b60009054906101000a900473ffffffffffffffffffffffffffffffffffffffff16905081600b60006101000a81548173ffffffffffffffffffffffffffffffffffffffff021916908373ffffffffffffffffffffffffffffffffffffffff1602179055508173ffffffffffffffffffffffffffffffffffffffff168173ffffffffffffffffffffffffffffffffffffffff167f8be0079c531659141344cd1fd0a4f28419497f9722a3daafe3b4186f6b6457e060405160405180910390a35050565b8173ffffffffffffffffffffffffffffffffffffffff168373ffffffffffffffffffffffffffffffffffffffff161415611554576040517f08c379a000000000000000000000000000000000000000000000000000000000815260040161154b90612d9f565b60405180910390fd5b80600560008573ffffffffffffffffffffffffffffffffffffffff1673ffffffffffffffffffffffffffffffffffffffff16815260200190815260200160002060008473ffffffffffffffffffffffffffffffffffffffff1673ffffffffffffffffffffffffffffffffffffffff16815260200190815260200160002060006101000a81548160ff0219169083151502179055508173ffffffffffffffffffffffffffffffffffffffff168373ffffffffffffffffffffffffffffffffffffffff167f17307eab39ab6107e8899845ad3d59bd9653f200f220920489ca2b5937696c31836040516116459190612ca2565b60405180910390a3505050565b61165d848484611102565b61166984848484611952565b6116a8576040517f08c379a000000000000000000000000000000000000000000000000000000000815260040161169f90612cff565b60405180910390fd5b50505050565b60606116b982610ef7565b6116f8576040517f08c379a00000000000000000000000000000000000000000000000000000000081526004016116ef90612e7f565b60405180910390fd5b6000600a60008481526020019081526020016000208054611718906131b5565b80601f0160208091040260200160405190810160405280929190818152602001828054611744906131b5565b80156117915780601f1061176657610100808354040283529160200191611791565b820191906000526020600020905b81548152906001019060200180831161177457829003601f168201915b5050505050905060006117a2611ae9565b90506000815114156117b85781925050506117fb565b6000825111156117ed5780826040516020016117d5929190612c17565b604051602081830303815290604052925050506117fb565b6117f684611b00565b925050505b919050565b60007f80ac58cd000000000000000000000000000000000000000000000000000000007bffffffffffffffffffffffffffffffffffffffffffffffffffffffff1916827bffffffffffffffffffffffffffffffffffffffffffffffffffffffff191614806118cb57507f5b5e139f000000000000000000000000000000000000000000000000000000007bffffffffffffffffffffffffffffffffffffffffffffffffffffffff1916827bffffffffffffffffffffffffffffffffffffffffffffffffffffffff1916145b806118db57506118da82611ba7565b5b9050919050565b6118ed838383611c11565b505050565b505050565b6119018383611d25565b61190e6000848484611952565b61194d576040517f08c379a000000000000000000000000000000000000000000000000000000000815260040161194490612cff565b60405180910390fd5b505050565b60006119738473ffffffffffffffffffffffffffffffffffffffff16611eff565b15611adc578373ffffffffffffffffffffffffffffffffffffffff1663150b7a0261199c610f63565b8786866040518563ffffffff1660e01b81526004016119be9493929190612c56565b602060405180830381600087803b1580156119d857600080fd5b505af1925050508015611a0957506040513d601f19601f82011682018060405250810190611a0691906127f8565b60015b611a8c573d8060008114611a39576040519150601f19603f3d011682016040523d82523d6000602084013e611a3e565b606091505b50600081511415611a84576040517f08c379a0000000000000000000000000000000000000000000000000000000008152600401611a7b90612cff565b60405180910390fd5b805181602001fd5b63150b7a0260e01b7bffffffffffffffffffffffffffffffffffffffffffffffffffffffff1916817bffffffffffffffffffffffffffffffffffffffffffffffffffffffff191614915050611ae1565b600190505b949350505050565b606060405180602001604052806000815250905090565b6060611b0b82610ef7565b611b4a576040517f08c379a0000000000000000000000000000000000000000000000000000000008152600401611b4190612edf565b60405180910390fd5b6000611b54611ae9565b90506000815111611b745760405180602001604052806000815250611b9f565b80611b7e84611f22565b604051602001611b8f929190612c17565b6040516020818303038152906040525b915050919050565b60007f01ffc9a7000000000000000000000000000000000000000000000000000000007bffffffffffffffffffffffffffffffffffffffffffffffffffffffff1916827bffffffffffffffffffffffffffffffffffffffffffffffffffffffff1916149050919050565b611c1c8383836120cf565b600073ffffffffffffffffffffffffffffffffffffffff168373ffffffffffffffffffffffffffffffffffffffff161415611c5f57611c5a816120d4565b611c9e565b8173ffffffffffffffffffffffffffffffffffffffff168373ffffffffffffffffffffffffffffffffffffffff1614611c9d57611c9c838261211d565b5b5b600073ffffffffffffffffffffffffffffffffffffffff168273ffffffffffffffffffffffffffffffffffffffff161415611ce157611cdc8161228a565b611d20565b8273ffffffffffffffffffffffffffffffffffffffff168273ffffffffffffffffffffffffffffffffffffffff1614611d1f57611d1e82826123cd565b5b5b505050565b600073ffffffffffffffffffffffffffffffffffffffff168273ffffffffffffffffffffffffffffffffffffffff161415611d95576040517f08c379a0000000000000000000000000000000000000000000000000000000008152600401611d8c90612e5f565b60405180910390fd5b611d9e81610ef7565b15611dde576040517f08c379a0000000000000000000000000000000000000000000000000000000008152600401611dd590612d5f565b60405180910390fd5b611dea600083836118e2565b6001600360008473ffffffffffffffffffffffffffffffffffffffff1673ffffffffffffffffffffffffffffffffffffffff1681526020019081526020016000206000828254611e3a9190613044565b92505081905550816002600083815260200190815260200160002060006101000a81548173ffffffffffffffffffffffffffffffffffffffff021916908373ffffffffffffffffffffffffffffffffffffffff160217905550808273ffffffffffffffffffffffffffffffffffffffff16600073ffffffffffffffffffffffffffffffffffffffff167fddf252ad1be2c89b69c2b068fc378daa952ba7f163c4a11628f55a4df523b3ef60405160405180910390a4611efb600083836118f2565b5050565b6000808273ffffffffffffffffffffffffffffffffffffffff163b119050919050565b60606000821415611f6a576040518060400160405280600181526020017f300000000000000000000000000000000000000000000000000000000000000081525090506120ca565b600082905060005b60008214611f9c578080611f8590613218565b915050600a82611f95919061309a565b9150611f72565b60008167ffffffffffffffff811115611fde577f4e487b7100000000000000000000000000000000000000000000000000000000600052604160045260246000fd5b6040519080825280601f01601f1916602001820160405280156120105781602001600182028036833780820191505090505b5090505b600085146120c35760018261202991906130cb565b9150600a856120389190613261565b60306120449190613044565b60f81b818381518110612080577f4e487b7100000000000000000000000000000000000000000000000000000000600052603260045260246000fd5b60200101907effffffffffffffffffffffffffffffffffffffffffffffffffffffffffffff1916908160001a905350600a856120bc919061309a565b9450612014565b8093505050505b919050565b505050565b6008805490506009600083815260200190815260200160002081905550600881908060018154018082558091505060019003906000526020600020016000909190919091505550565b6000600161212a84610a57565b61213491906130cb565b9050600060076000848152602001908152602001600020549050818114612219576000600660008673ffffffffffffffffffffffffffffffffffffffff1673ffffffffffffffffffffffffffffffffffffffff168152602001908152602001600020600084815260200190815260200160002054905080600660008773ffffffffffffffffffffffffffffffffffffffff1673ffffffffffffffffffffffffffffffffffffffff168152602001908152602001600020600084815260200190815260200160002081905550816007600083815260200190815260200160002081905550505b6007600084815260200190815260200160002060009055600660008573ffffffffffffffffffffffffffffffffffffffff1673ffffffffffffffffffffffffffffffffffffffff16815260200190815260200160002060008381526020019081526020016000206000905550505050565b6000600160088054905061229e91906130cb565b90506000600960008481526020019081526020016000205490506000600883815481106122f4577f4e487b7100000000000000000000000000000000000000000000000000000000600052603260045260246000fd5b90600052602060002001549050806008838154811061233c577f4e487b7100000000000000000000000000000000000000000000000000000000600052603260045260246000fd5b9060005260206000200181905550816009600083815260200190815260200160002081905550600960008581526020019081526020016000206000905560088054806123b1577f4e487b7100000000000000000000000000000000000000000000000000000000600052603160045260246000fd5b6001900381819060005260206000200160009055905550505050565b60006123d883610a57565b905081600660008573ffffffffffffffffffffffffffffffffffffffff1673ffffffffffffffffffffffffffffffffffffffff168152602001908152602001600020600083815260200190815260200160002081905550806007600084815260200190815260200160002081905550505050565b828054612458906131b5565b90600052602060002090601f01602090048101928261247a57600085556124c1565b82601f1061249357805160ff19168380011785556124c1565b828001600101855582156124c1579182015b828111156124c05782518255916020019190600101906124a5565b5b5090506124ce91906124d2565b5090565b5b808211156124eb5760008160009055506001016124d3565b5090565b60006125026124fd84612f9f565b612f7a565b90508281526020810184848401111561251a57600080fd5b612525848285613173565b509392505050565b600061254061253b84612fd0565b612f7a565b90508281526020810184848401111561255857600080fd5b612563848285613173565b509392505050565b60008135905061257a816138f3565b92915050565b60008135905061258f8161390a565b92915050565b6000813590506125a481613921565b92915050565b6000815190506125b981613921565b92915050565b600082601f8301126125d057600080fd5b81356125e08482602086016124ef565b91505092915050565b600082601f8301126125fa57600080fd5b813561260a84826020860161252d565b91505092915050565b60008135905061262281613938565b92915050565b60006020828403121561263a57600080fd5b60006126488482850161256b565b91505092915050565b6000806040838503121561266457600080fd5b60006126728582860161256b565b92505060206126838582860161256b565b9150509250929050565b6000806000606084860312156126a257600080fd5b60006126b08682870161256b565b93505060206126c18682870161256b565b92505060406126d286828701612613565b9150509250925092565b600080600080608085870312156126f257600080fd5b60006127008782880161256b565b94505060206127118782880161256b565b935050604061272287828801612613565b925050606085013567ffffffffffffffff81111561273f57600080fd5b61274b878288016125bf565b91505092959194509250565b6000806040838503121561276a57600080fd5b60006127788582860161256b565b925050602061278985828601612580565b9150509250929050565b600080604083850312156127a657600080fd5b60006127b48582860161256b565b92505060206127c585828601612613565b9150509250929050565b6000602082840312156127e157600080fd5b60006127ef84828501612595565b91505092915050565b60006020828403121561280a57600080fd5b6000612818848285016125aa565b91505092915050565b60006020828403121561283357600080fd5b600082013567ffffffffffffffff81111561284d57600080fd5b612859848285016125e9565b91505092915050565b60006020828403121561287457600080fd5b600061288284828501612613565b91505092915050565b612894816130ff565b82525050565b6128a381613111565b82525050565b60006128b482613001565b6128be8185613017565b93506128ce818560208601613182565b6128d78161334e565b840191505092915050565b60006128ed8261300c565b6128f78185613028565b9350612907818560208601613182565b6129108161334e565b840191505092915050565b60006129268261300c565b6129308185613039565b9350612940818560208601613182565b80840191505092915050565b6000612959602b83613028565b91506129648261335f565b604082019050919050565b600061297c603283613028565b9150612987826133ae565b604082019050919050565b600061299f602683613028565b91506129aa826133fd565b604082019050919050565b60006129c2602583613028565b91506129cd8261344c565b604082019050919050565b60006129e5601c83613028565b91506129f08261349b565b602082019050919050565b6000612a08602483613028565b9150612a13826134c4565b604082019050919050565b6000612a2b601983613028565b9150612a3682613513565b602082019050919050565b6000612a4e602c83613028565b9150612a598261353c565b604082019050919050565b6000612a71603883613028565b9150612a7c8261358b565b604082019050919050565b6000612a94602a83613028565b9150612a9f826135da565b604082019050919050565b6000612ab7602983613028565b9150612ac282613629565b604082019050919050565b6000612ada602e83613028565b9150612ae582613678565b604082019050919050565b6000612afd602083613028565b9150612b08826136c7565b602082019050919050565b6000612b20603183613028565b9150612b2b826136f0565b604082019050919050565b6000612b43602c83613028565b9150612b4e8261373f565b604082019050919050565b6000612b66602083613028565b9150612b718261378e565b602082019050919050565b6000612b89602f83613028565b9150612b94826137b7565b604082019050919050565b6000612bac602183613028565b9150612bb782613806565b604082019050919050565b6000612bcf603183613028565b9150612bda82613855565b604082019050919050565b6000612bf2602c83613028565b9150612bfd826138a4565b604082019050919050565b612c1181613169565b82525050565b6000612c23828561291b565b9150612c2f828461291b565b91508190509392505050565b6000602082019050612c50600083018461288b565b92915050565b6000608082019050612c6b600083018761288b565b612c78602083018661288b565b612c856040830185612c08565b8181036060830152612c9781846128a9565b905095945050505050565b6000602082019050612cb7600083018461289a565b92915050565b60006020820190508181036000830152612cd781846128e2565b905092915050565b60006020820190508181036000830152612cf88161294c565b9050919050565b60006020820190508181036000830152612d188161296f565b9050919050565b60006020820190508181036000830152612d3881612992565b9050919050565b60006020820190508181036000830152612d58816129b5565b9050919050565b60006020820190508181036000830152612d78816129d8565b9050919050565b60006020820190508181036000830152612d98816129fb565b9050919050565b60006020820190508181036000830152612db881612a1e565b9050919050565b60006020820190508181036000830152612dd881612a41565b9050919050565b60006020820190508181036000830152612df881612a64565b9050919050565b60006020820190508181036000830152612e1881612a87565b9050919050565b60006020820190508181036000830152612e3881612aaa565b9050919050565b60006020820190508181036000830152612e5881612acd565b9050919050565b60006020820190508181036000830152612e7881612af0565b9050919050565b60006020820190508181036000830152612e9881612b13565b9050919050565b60006020820190508181036000830152612eb881612b36565b9050919050565b60006020820190508181036000830152612ed881612b59565b9050919050565b60006020820190508181036000830152612ef881612b7c565b9050919050565b60006020820190508181036000830152612f1881612b9f565b9050919050565b60006020820190508181036000830152612f3881612bc2565b9050919050565b60006020820190508181036000830152612f5881612be5565b9050919050565b6000602082019050612f746000830184612c08565b92915050565b6000612f84612f95565b9050612f9082826131e7565b919050565b6000604051905090565b600067ffffffffffffffff821115612fba57612fb961331f565b5b612fc38261334e565b9050602081019050919050565b600067ffffffffffffffff821115612feb57612fea61331f565b5b612ff48261334e565b9050602081019050919050565b600081519050919050565b600081519050919050565b600082825260208201905092915050565b600082825260208201905092915050565b600081905092915050565b600061304f82613169565b915061305a83613169565b9250827fffffffffffffffffffffffffffffffffffffffffffffffffffffffffffffffff0382111561308f5761308e613292565b5b828201905092915050565b60006130a582613169565b91506130b083613169565b9250826130c0576130bf6132c1565b5b828204905092915050565b60006130d682613169565b91506130e183613169565b9250828210156130f4576130f3613292565b5b828203905092915050565b600061310a82613149565b9050919050565b60008115159050919050565b60007fffffffff0000000000000000000000000000000000000000000000000000000082169050919050565b600073ffffffffffffffffffffffffffffffffffffffff82169050919050565b6000819050919050565b82818337600083830152505050565b60005b838110156131a0578082015181840152602081019050613185565b838111156131af576000848401525b50505050565b600060028204905060018216806131cd57607f821691505b602082108114156131e1576131e06132f0565b5b50919050565b6131f08261334e565b810181811067ffffffffffffffff8211171561320f5761320e61331f565b5b80604052505050565b600061322382613169565b91507fffffffffffffffffffffffffffffffffffffffffffffffffffffffffffffffff82141561325657613255613292565b5b600182019050919050565b600061326c82613169565b915061327783613169565b925082613287576132866132c1565b5b828206905092915050565b7f4e487b7100000000000000000000000000000000000000000000000000000000600052601160045260246000fd5b7f4e487b7100000000000000000000000000000000000000000000000000000000600052601260045260246000fd5b7f4e487b7100000000000000000000000000000000000000000000000000000000600052602260045260246000fd5b7f4e487b7100000000000000000000000000000000000000000000000000000000600052604160045260246000fd5b6000601f19601f8301169050919050565b7f455243373231456e756d657261626c653a206f776e657220696e646578206f7560008201527f74206f6620626f756e6473000000000000000000000000000000000000000000602082015250565b7f4552433732313a207472616e7366657220746f206e6f6e20455243373231526560008201527f63656976657220696d706c656d656e7465720000000000000000000000000000602082015250565b7f4f776e61626c653a206e6577206f776e657220697320746865207a65726f206160008201527f6464726573730000000000000000000000000000000000000000000000000000602082015250565b7f4552433732313a207472616e736665722066726f6d20696e636f72726563742060008201527f6f776e6572000000000000000000000000000000000000000000000000000000602082015250565b7f4552433732313a20746f6b656e20616c7265616479206d696e74656400000000600082015250565b7f4552433732313a207472616e7366657220746f20746865207a65726f2061646460008201527f7265737300000000000000000000000000000000000000000000000000000000602082015250565b7f4552433732313a20617070726f766520746f2063616c6c657200000000000000600082015250565b7f4552433732313a206f70657261746f7220717565727920666f72206e6f6e657860008201527f697374656e7420746f6b656e0000000000000000000000000000000000000000602082015250565b7f4552433732313a20617070726f76652063616c6c6572206973206e6f74206f7760008201527f6e6572206e6f7220617070726f76656420666f7220616c6c0000000000000000602082015250565b7f4552433732313a2062616c616e636520717565727920666f7220746865207a6560008201527f726f206164647265737300000000000000000000000000000000000000000000602082015250565b7f4552433732313a206f776e657220717565727920666f72206e6f6e657869737460008201527f656e7420746f6b656e0000000000000000000000000000000000000000000000602082015250565b7f45524337323155524953746f726167653a2055524920736574206f66206e6f6e60008201527f6578697374656e7420746f6b656e000000000000000000000000000000000000602082015250565b7f4552433732313a206d696e7420746f20746865207a65726f2061646472657373600082015250565b7f45524337323155524953746f726167653a2055524920717565727920666f722060008201527f6e6f6e6578697374656e7420746f6b656e000000000000000000000000000000602082015250565b7f4552433732313a20617070726f76656420717565727920666f72206e6f6e657860008201527f697374656e7420746f6b656e0000000000000000000000000000000000000000602082015250565b7f4f776e61626c653a2063616c6c6572206973206e6f7420746865206f776e6572600082015250565b7f4552433732314d657461646174613a2055524920717565727920666f72206e6f60008201527f6e6578697374656e7420746f6b656e0000000000000000000000000000000000602082015250565b7f4552433732313a20617070726f76616c20746f2063757272656e74206f776e6560008201527f7200000000000000000000000000000000000000000000000000000000000000602082015250565b7f4552433732313a207472616e736665722063616c6c6572206973206e6f74206f60008201527f776e6572206e6f7220617070726f766564000000000000000000000000000000602082015250565b7f455243373231456e756d657261626c653a20676c6f62616c20696e646578206f60008201527f7574206f6620626f756e64730000000000000000000000000000000000000000602082015250565b6138fc816130ff565b811461390757600080fd5b50565b61391381613111565b811461391e57600080fd5b50565b61392a8161311d565b811461393557600080fd5b50565b61394181613169565b811461394c57600080fd5b5056fea264697066735822122087fb7b391139110d3278d7cc6e33eb1953a44d6dd3f004c8f6c87468a852b60464736f6c63430008040033",
  "linkReferences": {},
  "deployedLinkReferences": {}
}