{
  "_format": "hh-sol-artifact-1",
  "contractName": "MyNFT",
  "sourceName": "contracts/MyNFT.sol",
  "abi": [
    {
      "inputs": [],
      "stateMutability": "nonpayable",
      "type": "constructor"
    },
    {
      "anonymous": false,
      "inputs": [
        {
          "indexed": true,
          "internalType": "address",
          "name": "owner",
          "type": "address"
        },
        {
          "indexed": true,
          "internalType": "address",
          "name": "approved",
          "type": "address"
        },
        {
          "indexed": true,
          "internalType": "uint256",
          "name": "tokenId",
          "type": "uint256"
        }
      ],
      "name": "Approval",
      "type": "event"
    },
    {
      "anonymous": false,
      "inputs": [
        {
          "indexed": true,
          "internalType": "address",
          "name": "owner",
          "type": "address"
        },
        {
          "indexed": true,
          "internalType": "address",
          "name": "operator",
          "type": "address"
        },
        {
          "indexed": false,
          "internalType": "bool",
          "name": "approved",
          "type": "bool"
        }
      ],
      "name": "ApprovalForAll",
      "type": "event"
    },
    {
      "anonymous": false,
      "inputs": [
        {
          "indexed": true,
          "internalType": "address",
          "name": "previousOwner",
          "type": "address"
        },
        {
          "indexed": true,
          "internalType": "address",
          "name": "newOwner",
          "type": "address"
        }
      ],
      "name": "OwnershipTransferred",
      "type": "event"
    },
    {
      "anonymous": false,
      "inputs": [
        {
          "indexed": true,
          "internalType": "address",
          "name": "from",
          "type": "address"
        },
        {
          "indexed": true,
          "internalType": "address",
          "name": "to",
          "type": "address"
        },
        {
          "indexed": true,
          "internalType": "uint256",
          "name": "tokenId",
          "type": "uint256"
        }
      ],
      "name": "Transfer",
      "type": "event"
    },
    {
      "inputs": [
        {
          "internalType": "address",
          "name": "to",
          "type": "address"
        },
        {
          "internalType": "uint256",
          "name": "tokenId",
          "type": "uint256"
        }
      ],
      "name": "approve",
      "outputs": [],
      "stateMutability": "nonpayable",
      "type": "function"
    },
    {
      "inputs": [
        {
          "internalType": "address",
          "name": "owner",
          "type": "address"
        }
      ],
      "name": "balanceOf",
      "outputs": [
        {
          "internalType": "uint256",
          "name": "",
          "type": "uint256"
        }
      ],
      "stateMutability": "view",
      "type": "function"
    },
    {
      "inputs": [
        {
          "internalType": "uint256",
          "name": "tokenId",
          "type": "uint256"
        }
      ],
      "name": "getApproved",
      "outputs": [
        {
          "internalType": "address",
          "name": "",
          "type": "address"
        }
      ],
      "stateMutability": "view",
      "type": "function"
    },
    {
      "inputs": [],
      "name": "getNFTlength",
      "outputs": [
        {
          "internalType": "uint256",
          "name": "",
          "type": "uint256"
        }
      ],
      "stateMutability": "view",
      "type": "function"
    },
    {
      "inputs": [
        {
          "internalType": "uint256",
          "name": "_index",
          "type": "uint256"
        }
      ],
      "name": "getSavetheplanetNFTS",
      "outputs": [
        {
          "components": [
            {
              "internalType": "uint256",
              "name": "tokenId",
              "type": "uint256"
            },
            {
              "internalType": "address payable",
              "name": "owner",
              "type": "address"
            }
          ],
          "internalType": "struct MyNFT.SaveThePlanet",
          "name": "",
          "type": "tuple"
        }
      ],
      "stateMutability": "view",
      "type": "function"
    },
    {
      "inputs": [
        {
          "internalType": "address",
          "name": "owner",
          "type": "address"
        },
        {
          "internalType": "address",
          "name": "operator",
          "type": "address"
        }
      ],
      "name": "isApprovedForAll",
      "outputs": [
        {
          "internalType": "bool",
          "name": "",
          "type": "bool"
        }
      ],
      "stateMutability": "view",
      "type": "function"
    },
    {
      "inputs": [
        {
          "internalType": "string",
          "name": "uri",
          "type": "string"
        }
      ],
      "name": "mint",
      "outputs": [],
      "stateMutability": "payable",
      "type": "function"
    },
    {
      "inputs": [
        {
          "internalType": "address",
          "name": "to",
          "type": "address"
        },
        {
          "internalType": "uint256[]",
          "name": "ids",
          "type": "uint256[]"
        },
        {
          "internalType": "uint256[]",
          "name": "amounts",
          "type": "uint256[]"
        },
        {
          "internalType": "bytes",
          "name": "data",
          "type": "bytes"
        }
      ],
      "name": "mintBatch",
      "outputs": [],
      "stateMutability": "payable",
      "type": "function"
    },
    {
      "inputs": [],
      "name": "name",
      "outputs": [
        {
          "internalType": "string",
          "name": "",
          "type": "string"
        }
      ],
      "stateMutability": "view",
      "type": "function"
    },
    {
      "inputs": [],
      "name": "numberofNFTMinted",
      "outputs": [
        {
          "internalType": "uint256",
          "name": "",
          "type": "uint256"
        }
      ],
      "stateMutability": "view",
      "type": "function"
    },
    {
      "inputs": [],
      "name": "owner",
      "outputs": [
        {
          "internalType": "address",
          "name": "",
          "type": "address"
        }
      ],
      "stateMutability": "view",
      "type": "function"
    },
    {
      "inputs": [
        {
          "internalType": "uint256",
          "name": "tokenId",
          "type": "uint256"
        }
      ],
      "name": "ownerOf",
      "outputs": [
        {
          "internalType": "address",
          "name": "",
          "type": "address"
        }
      ],
      "stateMutability": "view",
      "type": "function"
    },
    {
      "inputs": [
        {
          "internalType": "uint256",
          "name": "_index",
          "type": "uint256"
        }
      ],
      "name": "removeNFT",
      "outputs": [],
      "stateMutability": "nonpayable",
      "type": "function"
    },
    {
      "inputs": [],
      "name": "renounceOwnership",
      "outputs": [],
      "stateMutability": "nonpayable",
      "type": "function"
    },
    {
      "inputs": [
        {
          "internalType": "address",
          "name": "from",
          "type": "address"
        },
        {
          "internalType": "address",
          "name": "to",
          "type": "address"
        },
        {
          "internalType": "uint256",
          "name": "tokenId",
          "type": "uint256"
        }
      ],
      "name": "safeTransferFrom",
      "outputs": [],
      "stateMutability": "nonpayable",
      "type": "function"
    },
    {
      "inputs": [
        {
          "internalType": "address",
          "name": "from",
          "type": "address"
        },
        {
          "internalType": "address",
          "name": "to",
          "type": "address"
        },
        {
          "internalType": "uint256",
          "name": "tokenId",
          "type": "uint256"
        },
        {
          "internalType": "bytes",
          "name": "_data",
          "type": "bytes"
        }
      ],
      "name": "safeTransferFrom",
      "outputs": [],
      "stateMutability": "nonpayable",
      "type": "function"
    },
    {
      "inputs": [
        {
          "internalType": "address",
          "name": "operator",
          "type": "address"
        },
        {
          "internalType": "bool",
          "name": "approved",
          "type": "bool"
        }
      ],
      "name": "setApprovalForAll",
      "outputs": [],
      "stateMutability": "nonpayable",
      "type": "function"
    },
    {
      "inputs": [
        {
          "internalType": "bytes4",
          "name": "interfaceId",
          "type": "bytes4"
        }
      ],
      "name": "supportsInterface",
      "outputs": [
        {
          "internalType": "bool",
          "name": "",
          "type": "bool"
        }
      ],
      "stateMutability": "view",
      "type": "function"
    },
    {
      "inputs": [],
      "name": "symbol",
      "outputs": [
        {
          "internalType": "string",
          "name": "",
          "type": "string"
        }
      ],
      "stateMutability": "view",
      "type": "function"
    },
    {
      "inputs": [
        {
          "internalType": "uint256",
          "name": "index",
          "type": "uint256"
        }
      ],
      "name": "tokenByIndex",
      "outputs": [
        {
          "internalType": "uint256",
          "name": "",
          "type": "uint256"
        }
      ],
      "stateMutability": "view",
      "type": "function"
    },
    {
      "inputs": [
        {
          "internalType": "address",
          "name": "owner",
          "type": "address"
        },
        {
          "internalType": "uint256",
          "name": "index",
          "type": "uint256"
        }
      ],
      "name": "tokenOfOwnerByIndex",
      "outputs": [
        {
          "internalType": "uint256",
          "name": "",
          "type": "uint256"
        }
      ],
      "stateMutability": "view",
      "type": "function"
    },
    {
      "inputs": [
        {
          "internalType": "uint256",
          "name": "tokenId",
          "type": "uint256"
        }
      ],
      "name": "tokenURI",
      "outputs": [
        {
          "internalType": "string",
          "name": "",
          "type": "string"
        }
      ],
      "stateMutability": "view",
      "type": "function"
    },
    {
      "inputs": [],
      "name": "totalSupply",
      "outputs": [
        {
          "internalType": "uint256",
          "name": "",
          "type": "uint256"
        }
      ],
      "stateMutability": "view",
      "type": "function"
    },
    {
      "inputs": [
        {
          "internalType": "address",
          "name": "from",
          "type": "address"
        },
        {
          "internalType": "address",
          "name": "to",
          "type": "address"
        },
        {
          "internalType": "uint256",
          "name": "tokenId",
          "type": "uint256"
        }
      ],
      "name": "transferFrom",
      "outputs": [],
      "stateMutability": "nonpayable",
      "type": "function"
    },
    {
      "inputs": [
        {
          "internalType": "address",
          "name": "newOwner",
          "type": "address"
        }
      ],
      "name": "transferOwnership",
      "outputs": [],
      "stateMutability": "nonpayable",
      "type": "function"
    }
  ],
  "bytecode": "0x60806040526000600d553480156200001657600080fd5b506040518060400160405280601081526020017f53617665546865506c616e65744e4654000000000000000000000000000000008152506040518060400160405280600681526020017f5354504e4654000000000000000000000000000000000000000000000000000081525081600090805190602001906200009b929190620001ab565b508060019080519060200190620000b4929190620001ab565b505050620000d7620000cb620000dd60201b60201c565b620000e560201b60201c565b620002c0565b600033905090565b6000600b60009054906101000a900473ffffffffffffffffffffffffffffffffffffffff16905081600b60006101000a81548173ffffffffffffffffffffffffffffffffffffffff021916908373ffffffffffffffffffffffffffffffffffffffff1602179055508173ffffffffffffffffffffffffffffffffffffffff168173ffffffffffffffffffffffffffffffffffffffff167f8be0079c531659141344cd1fd0a4f28419497f9722a3daafe3b4186f6b6457e060405160405180910390a35050565b828054620001b9906200025b565b90600052602060002090601f016020900481019282620001dd576000855562000229565b82601f10620001f857805160ff191683800117855562000229565b8280016001018555821562000229579182015b82811115620002285782518255916020019190600101906200020b565b5b5090506200023891906200023c565b5090565b5b80821115620002575760008160009055506001016200023d565b5090565b600060028204905060018216806200027457607f821691505b602082108114156200028b576200028a62000291565b5b50919050565b7f4e487b7100000000000000000000000000000000000000000000000000000000600052602260045260246000fd5b61411180620002d06000396000f3fe6080604052600436106101665760003560e01c8063715018a6116100d1578063d41daa2b1161008a578063e985e9c511610064578063e985e9c514610546578063ee4739cb14610583578063f2fde38b146105ac578063fff614a1146105d557610166565b8063d41daa2b146104c2578063d85d3d27146104ed578063ddf3db221461050957610166565b8063715018a6146103c65780638da5cb5b146103dd57806395d89b4114610408578063a22cb46514610433578063b88d4fde1461045c578063c87b56dd1461048557610166565b806323b872dd1161012357806323b872dd146102805780632f745c59146102a957806342842e0e146102e65780634f6ccce71461030f5780636352211e1461034c57806370a082311461038957610166565b806301ffc9a71461016b57806306fdde03146101a8578063081812fc146101d3578063095ea7b31461021057806318160ddd146102395780631f7fdffa14610264575b600080fd5b34801561017757600080fd5b50610192600480360381019061018d9190612e1f565b610600565b60405161019f9190613362565b60405180910390f35b3480156101b457600080fd5b506101bd610612565b6040516101ca919061337d565b60405180910390f35b3480156101df57600080fd5b506101fa60048036038101906101f59190612eb2565b6106a4565b60405161020791906132fb565b60405180910390f35b34801561021c57600080fd5b5061023760048036038101906102329190612de3565b610729565b005b34801561024557600080fd5b5061024e610841565b60405161025b919061365a565b60405180910390f35b61027e60048036038101906102799190612cfc565b61084e565b005b34801561028c57600080fd5b506102a760048036038101906102a29190612c32565b610930565b005b3480156102b557600080fd5b506102d060048036038101906102cb9190612de3565b610990565b6040516102dd919061365a565b60405180910390f35b3480156102f257600080fd5b5061030d60048036038101906103089190612c32565b610a35565b005b34801561031b57600080fd5b5061033660048036038101906103319190612eb2565b610a55565b604051610343919061365a565b60405180910390f35b34801561035857600080fd5b50610373600480360381019061036e9190612eb2565b610aec565b60405161038091906132fb565b60405180910390f35b34801561039557600080fd5b506103b060048036038101906103ab9190612bcd565b610b9e565b6040516103bd919061365a565b60405180910390f35b3480156103d257600080fd5b506103db610c56565b005b3480156103e957600080fd5b506103f2610cde565b6040516103ff91906132fb565b60405180910390f35b34801561041457600080fd5b5061041d610d08565b60405161042a919061337d565b60405180910390f35b34801561043f57600080fd5b5061045a60048036038101906104559190612da7565b610d9a565b005b34801561046857600080fd5b50610483600480360381019061047e9190612c81565b610db0565b005b34801561049157600080fd5b506104ac60048036038101906104a79190612eb2565b610e12565b6040516104b9919061337d565b60405180910390f35b3480156104ce57600080fd5b506104d7610e24565b6040516104e4919061365a565b60405180910390f35b61050760048036038101906105029190612e71565b610e2e565b005b34801561051557600080fd5b50610530600480360381019061052b9190612eb2565b610ebb565b60405161053d919061363f565b60405180910390f35b34801561055257600080fd5b5061056d60048036038101906105689190612bf6565b610f48565b60405161057a9190613362565b60405180910390f35b34801561058f57600080fd5b506105aa60048036038101906105a59190612eb2565b610fdc565b005b3480156105b857600080fd5b506105d360048036038101906105ce9190612bcd565b611196565b005b3480156105e157600080fd5b506105ea61128e565b6040516105f7919061365a565b60405180910390f35b600061060b826112a2565b9050919050565b60606000805461062190613918565b80601f016020809104026020016040519081016040528092919081815260200182805461064d90613918565b801561069a5780601f1061066f5761010080835404028352916020019161069a565b820191906000526020600020905b81548152906001019060200180831161067d57829003601f168201915b5050505050905090565b60006106af8261131c565b6106ee576040517f08c379a00000000000000000000000000000000000000000000000000000000081526004016106e59061357f565b60405180910390fd5b6004600083815260200190815260200160002060009054906101000a900473ffffffffffffffffffffffffffffffffffffffff169050919050565b600061073482610aec565b90508073ffffffffffffffffffffffffffffffffffffffff168373ffffffffffffffffffffffffffffffffffffffff1614156107a5576040517f08c379a000000000000000000000000000000000000000000000000000000000815260040161079c906135df565b60405180910390fd5b8073ffffffffffffffffffffffffffffffffffffffff166107c4611388565b73ffffffffffffffffffffffffffffffffffffffff1614806107f357506107f2816107ed611388565b610f48565b5b610832576040517f08c379a0000000000000000000000000000000000000000000000000000000008152600401610829906134bf565b60405180910390fd5b61083c8383611390565b505050565b6000600880549050905090565b610856611388565b73ffffffffffffffffffffffffffffffffffffffff16610874610cde565b73ffffffffffffffffffffffffffffffffffffffff16146108ca576040517f08c379a00000000000000000000000000000000000000000000000000000000081526004016108c19061359f565b60405180910390fd5b60006108d4610cde565b90508073ffffffffffffffffffffffffffffffffffffffff166108fc349081150290604051600060405180830381858888f1935050505015801561091c573d6000803e3d6000fd5b506109298585858561084e565b5050505050565b61094161093b611388565b82611449565b610980576040517f08c379a0000000000000000000000000000000000000000000000000000000008152600401610977906135ff565b60405180910390fd5b61098b838383611527565b505050565b600061099b83610b9e565b82106109dc576040517f08c379a00000000000000000000000000000000000000000000000000000000081526004016109d39061339f565b60405180910390fd5b600660008473ffffffffffffffffffffffffffffffffffffffff1673ffffffffffffffffffffffffffffffffffffffff168152602001908152602001600020600083815260200190815260200160002054905092915050565b610a5083838360405180602001604052806000815250610db0565b505050565b6000610a5f610841565b8210610aa0576040517f08c379a0000000000000000000000000000000000000000000000000000000008152600401610a979061361f565b60405180910390fd5b60088281548110610ada577f4e487b7100000000000000000000000000000000000000000000000000000000600052603260045260246000fd5b90600052602060002001549050919050565b6000806002600084815260200190815260200160002060009054906101000a900473ffffffffffffffffffffffffffffffffffffffff169050600073ffffffffffffffffffffffffffffffffffffffff168173ffffffffffffffffffffffffffffffffffffffff161415610b95576040517f08c379a0000000000000000000000000000000000000000000000000000000008152600401610b8c906134ff565b60405180910390fd5b80915050919050565b60008073ffffffffffffffffffffffffffffffffffffffff168273ffffffffffffffffffffffffffffffffffffffff161415610c0f576040517f08c379a0000000000000000000000000000000000000000000000000000000008152600401610c06906134df565b60405180910390fd5b600360008373ffffffffffffffffffffffffffffffffffffffff1673ffffffffffffffffffffffffffffffffffffffff168152602001908152602001600020549050919050565b610c5e611388565b73ffffffffffffffffffffffffffffffffffffffff16610c7c610cde565b73ffffffffffffffffffffffffffffffffffffffff1614610cd2576040517f08c379a0000000000000000000000000000000000000000000000000000000008152600401610cc99061359f565b60405180910390fd5b610cdc600061178e565b565b6000600b60009054906101000a900473ffffffffffffffffffffffffffffffffffffffff16905090565b606060018054610d1790613918565b80601f0160208091040260200160405190810160405280929190818152602001828054610d4390613918565b8015610d905780601f10610d6557610100808354040283529160200191610d90565b820191906000526020600020905b815481529060010190602001808311610d7357829003601f168201915b5050505050905090565b610dac610da5611388565b8383611854565b5050565b610dc1610dbb611388565b83611449565b610e00576040517f08c379a0000000000000000000000000000000000000000000000000000000008152600401610df7906135ff565b60405180910390fd5b610e0c848484846119c1565b50505050565b6060610e1d82611a1d565b9050919050565b6000600d54905090565b6000610e3a600c611b6f565b90506000610e46610cde565b9050610e52600c611b7d565b610e5c3383611b93565b610e668284611bb1565b8073ffffffffffffffffffffffffffffffffffffffff166108fc349081150290604051600060405180830381858888f19350505050158015610eac573d6000803e3d6000fd5b50610eb682611c25565b505050565b610ec361292b565b600e6000838152602001908152602001600020604051806040016040529081600082015481526020016001820160009054906101000a900473ffffffffffffffffffffffffffffffffffffffff1673ffffffffffffffffffffffffffffffffffffffff1673ffffffffffffffffffffffffffffffffffffffff16815250509050919050565b6000600560008473ffffffffffffffffffffffffffffffffffffffff1673ffffffffffffffffffffffffffffffffffffffff16815260200190815260200160002060008373ffffffffffffffffffffffffffffffffffffffff1673ffffffffffffffffffffffffffffffffffffffff16815260200190815260200160002060009054906101000a900460ff16905092915050565b600e600082815260200190815260200160002060010160009054906101000a900473ffffffffffffffffffffffffffffffffffffffff1673ffffffffffffffffffffffffffffffffffffffff163373ffffffffffffffffffffffffffffffffffffffff1614611080576040517f08c379a00000000000000000000000000000000000000000000000000000000081526004016110779061343f565b60405180910390fd5b600e60006001600d5461109391906137f2565b8152602001908152602001600020600e6000838152602001908152602001600020600082015481600001556001820160009054906101000a900473ffffffffffffffffffffffffffffffffffffffff168160010160006101000a81548173ffffffffffffffffffffffffffffffffffffffff021916908373ffffffffffffffffffffffffffffffffffffffff160217905550905050600e60006001600d5461113b91906137f2565b81526020019081526020016000206000808201600090556001820160006101000a81549073ffffffffffffffffffffffffffffffffffffffff02191690555050600d600081548092919061118e906138ee565b919050555050565b61119e611388565b73ffffffffffffffffffffffffffffffffffffffff166111bc610cde565b73ffffffffffffffffffffffffffffffffffffffff1614611212576040517f08c379a00000000000000000000000000000000000000000000000000000000081526004016112099061359f565b60405180910390fd5b600073ffffffffffffffffffffffffffffffffffffffff168173ffffffffffffffffffffffffffffffffffffffff161415611282576040517f08c379a0000000000000000000000000000000000000000000000000000000008152600401611279906133df565b60405180910390fd5b61128b8161178e565b50565b600080611299610841565b90508091505090565b60007f780e9d63000000000000000000000000000000000000000000000000000000007bffffffffffffffffffffffffffffffffffffffffffffffffffffffff1916827bffffffffffffffffffffffffffffffffffffffffffffffffffffffff19161480611315575061131482611cdf565b5b9050919050565b60008073ffffffffffffffffffffffffffffffffffffffff166002600084815260200190815260200160002060009054906101000a900473ffffffffffffffffffffffffffffffffffffffff1673ffffffffffffffffffffffffffffffffffffffff1614159050919050565b600033905090565b816004600083815260200190815260200160002060006101000a81548173ffffffffffffffffffffffffffffffffffffffff021916908373ffffffffffffffffffffffffffffffffffffffff160217905550808273ffffffffffffffffffffffffffffffffffffffff1661140383610aec565b73ffffffffffffffffffffffffffffffffffffffff167f8c5be1e5ebec7d5bd14f71427d1e84f3dd0314c0f7b2291e5b200ac8c7c3b92560405160405180910390a45050565b60006114548261131c565b611493576040517f08c379a000000000000000000000000000000000000000000000000000000000815260040161148a9061349f565b60405180910390fd5b600061149e83610aec565b90508073ffffffffffffffffffffffffffffffffffffffff168473ffffffffffffffffffffffffffffffffffffffff1614806114e057506114df8185610f48565b5b8061151e57508373ffffffffffffffffffffffffffffffffffffffff16611506846106a4565b73ffffffffffffffffffffffffffffffffffffffff16145b91505092915050565b8273ffffffffffffffffffffffffffffffffffffffff1661154782610aec565b73ffffffffffffffffffffffffffffffffffffffff161461159d576040517f08c379a0000000000000000000000000000000000000000000000000000000008152600401611594906133ff565b60405180910390fd5b600073ffffffffffffffffffffffffffffffffffffffff168273ffffffffffffffffffffffffffffffffffffffff16141561160d576040517f08c379a00000000000000000000000000000000000000000000000000000000081526004016116049061345f565b60405180910390fd5b611618838383611dc1565b611623600082611390565b6001600360008573ffffffffffffffffffffffffffffffffffffffff1673ffffffffffffffffffffffffffffffffffffffff168152602001908152602001600020600082825461167391906137f2565b925050819055506001600360008473ffffffffffffffffffffffffffffffffffffffff1673ffffffffffffffffffffffffffffffffffffffff16815260200190815260200160002060008282546116ca919061376b565b92505081905550816002600083815260200190815260200160002060006101000a81548173ffffffffffffffffffffffffffffffffffffffff021916908373ffffffffffffffffffffffffffffffffffffffff160217905550808273ffffffffffffffffffffffffffffffffffffffff168473ffffffffffffffffffffffffffffffffffffffff167fddf252ad1be2c89b69c2b068fc378daa952ba7f163c4a11628f55a4df523b3ef60405160405180910390a4611789838383611dd1565b505050565b6000600b60009054906101000a900473ffffffffffffffffffffffffffffffffffffffff16905081600b60006101000a81548173ffffffffffffffffffffffffffffffffffffffff021916908373ffffffffffffffffffffffffffffffffffffffff1602179055508173ffffffffffffffffffffffffffffffffffffffff168173ffffffffffffffffffffffffffffffffffffffff167f8be0079c531659141344cd1fd0a4f28419497f9722a3daafe3b4186f6b6457e060405160405180910390a35050565b8173ffffffffffffffffffffffffffffffffffffffff168373ffffffffffffffffffffffffffffffffffffffff1614156118c3576040517f08c379a00000000000000000000000000000000000000000000000000000000081526004016118ba9061347f565b60405180910390fd5b80600560008573ffffffffffffffffffffffffffffffffffffffff1673ffffffffffffffffffffffffffffffffffffffff16815260200190815260200160002060008473ffffffffffffffffffffffffffffffffffffffff1673ffffffffffffffffffffffffffffffffffffffff16815260200190815260200160002060006101000a81548160ff0219169083151502179055508173ffffffffffffffffffffffffffffffffffffffff168373ffffffffffffffffffffffffffffffffffffffff167f17307eab39ab6107e8899845ad3d59bd9653f200f220920489ca2b5937696c31836040516119b49190613362565b60405180910390a3505050565b6119cc848484611527565b6119d884848484611dd6565b611a17576040517f08c379a0000000000000000000000000000000000000000000000000000000008152600401611a0e906133bf565b60405180910390fd5b50505050565b6060611a288261131c565b611a67576040517f08c379a0000000000000000000000000000000000000000000000000000000008152600401611a5e9061355f565b60405180910390fd5b6000600a60008481526020019081526020016000208054611a8790613918565b80601f0160208091040260200160405190810160405280929190818152602001828054611ab390613918565b8015611b005780601f10611ad557610100808354040283529160200191611b00565b820191906000526020600020905b815481529060010190602001808311611ae357829003601f168201915b505050505090506000611b11611f6d565b9050600081511415611b27578192505050611b6a565b600082511115611b5c578082604051602001611b449291906132d7565b60405160208183030381529060405292505050611b6a565b611b6584611f84565b925050505b919050565b600081600001549050919050565b6001816000016000828254019250508190555050565b611bad82826040518060200160405280600081525061202b565b5050565b611bba8261131c565b611bf9576040517f08c379a0000000000000000000000000000000000000000000000000000000008152600401611bf09061351f565b60405180910390fd5b80600a60008481526020019081526020016000209080519060200190611c2092919061295b565b505050565b60405180604001604052808281526020013373ffffffffffffffffffffffffffffffffffffffff16815250600e6000600d5481526020019081526020016000206000820151816000015560208201518160010160006101000a81548173ffffffffffffffffffffffffffffffffffffffff021916908373ffffffffffffffffffffffffffffffffffffffff160217905550905050600d6000815480929190611ccc9061397b565b9190505550611cdc333083611527565b50565b60007f80ac58cd000000000000000000000000000000000000000000000000000000007bffffffffffffffffffffffffffffffffffffffffffffffffffffffff1916827bffffffffffffffffffffffffffffffffffffffffffffffffffffffff19161480611daa57507f5b5e139f000000000000000000000000000000000000000000000000000000007bffffffffffffffffffffffffffffffffffffffffffffffffffffffff1916827bffffffffffffffffffffffffffffffffffffffffffffffffffffffff1916145b80611dba5750611db982612086565b5b9050919050565b611dcc8383836120f0565b505050565b505050565b6000611df78473ffffffffffffffffffffffffffffffffffffffff16612204565b15611f60578373ffffffffffffffffffffffffffffffffffffffff1663150b7a02611e20611388565b8786866040518563ffffffff1660e01b8152600401611e429493929190613316565b602060405180830381600087803b158015611e5c57600080fd5b505af1925050508015611e8d57506040513d601f19601f82011682018060405250810190611e8a9190612e48565b60015b611f10573d8060008114611ebd576040519150601f19603f3d011682016040523d82523d6000602084013e611ec2565b606091505b50600081511415611f08576040517f08c379a0000000000000000000000000000000000000000000000000000000008152600401611eff906133bf565b60405180910390fd5b805181602001fd5b63150b7a0260e01b7bffffffffffffffffffffffffffffffffffffffffffffffffffffffff1916817bffffffffffffffffffffffffffffffffffffffffffffffffffffffff191614915050611f65565b600190505b949350505050565b606060405180602001604052806000815250905090565b6060611f8f8261131c565b611fce576040517f08c379a0000000000000000000000000000000000000000000000000000000008152600401611fc5906135bf565b60405180910390fd5b6000611fd8611f6d565b90506000815111611ff85760405180602001604052806000815250612023565b8061200284612227565b6040516020016120139291906132d7565b6040516020818303038152906040525b915050919050565b61203583836123d4565b6120426000848484611dd6565b612081576040517f08c379a0000000000000000000000000000000000000000000000000000000008152600401612078906133bf565b60405180910390fd5b505050565b60007f01ffc9a7000000000000000000000000000000000000000000000000000000007bffffffffffffffffffffffffffffffffffffffffffffffffffffffff1916827bffffffffffffffffffffffffffffffffffffffffffffffffffffffff1916149050919050565b6120fb8383836125ae565b600073ffffffffffffffffffffffffffffffffffffffff168373ffffffffffffffffffffffffffffffffffffffff16141561213e57612139816125b3565b61217d565b8173ffffffffffffffffffffffffffffffffffffffff168373ffffffffffffffffffffffffffffffffffffffff161461217c5761217b83826125fc565b5b5b600073ffffffffffffffffffffffffffffffffffffffff168273ffffffffffffffffffffffffffffffffffffffff1614156121c0576121bb81612769565b6121ff565b8273ffffffffffffffffffffffffffffffffffffffff168273ffffffffffffffffffffffffffffffffffffffff16146121fe576121fd82826128ac565b5b5b505050565b6000808273ffffffffffffffffffffffffffffffffffffffff163b119050919050565b6060600082141561226f576040518060400160405280600181526020017f300000000000000000000000000000000000000000000000000000000000000081525090506123cf565b600082905060005b600082146122a157808061228a9061397b565b915050600a8261229a91906137c1565b9150612277565b60008167ffffffffffffffff8111156122e3577f4e487b7100000000000000000000000000000000000000000000000000000000600052604160045260246000fd5b6040519080825280601f01601f1916602001820160405280156123155781602001600182028036833780820191505090505b5090505b600085146123c85760018261232e91906137f2565b9150600a8561233d91906139c4565b6030612349919061376b565b60f81b818381518110612385577f4e487b7100000000000000000000000000000000000000000000000000000000600052603260045260246000fd5b60200101907effffffffffffffffffffffffffffffffffffffffffffffffffffffffffffff1916908160001a905350600a856123c191906137c1565b9450612319565b8093505050505b919050565b600073ffffffffffffffffffffffffffffffffffffffff168273ffffffffffffffffffffffffffffffffffffffff161415612444576040517f08c379a000000000000000000000000000000000000000000000000000000000815260040161243b9061353f565b60405180910390fd5b61244d8161131c565b1561248d576040517f08c379a00000000000000000000000000000000000000000000000000000000081526004016124849061341f565b60405180910390fd5b61249960008383611dc1565b6001600360008473ffffffffffffffffffffffffffffffffffffffff1673ffffffffffffffffffffffffffffffffffffffff16815260200190815260200160002060008282546124e9919061376b565b92505081905550816002600083815260200190815260200160002060006101000a81548173ffffffffffffffffffffffffffffffffffffffff021916908373ffffffffffffffffffffffffffffffffffffffff160217905550808273ffffffffffffffffffffffffffffffffffffffff16600073ffffffffffffffffffffffffffffffffffffffff167fddf252ad1be2c89b69c2b068fc378daa952ba7f163c4a11628f55a4df523b3ef60405160405180910390a46125aa60008383611dd1565b5050565b505050565b6008805490506009600083815260200190815260200160002081905550600881908060018154018082558091505060019003906000526020600020016000909190919091505550565b6000600161260984610b9e565b61261391906137f2565b90506000600760008481526020019081526020016000205490508181146126f8576000600660008673ffffffffffffffffffffffffffffffffffffffff1673ffffffffffffffffffffffffffffffffffffffff168152602001908152602001600020600084815260200190815260200160002054905080600660008773ffffffffffffffffffffffffffffffffffffffff1673ffffffffffffffffffffffffffffffffffffffff168152602001908152602001600020600084815260200190815260200160002081905550816007600083815260200190815260200160002081905550505b6007600084815260200190815260200160002060009055600660008573ffffffffffffffffffffffffffffffffffffffff1673ffffffffffffffffffffffffffffffffffffffff16815260200190815260200160002060008381526020019081526020016000206000905550505050565b6000600160088054905061277d91906137f2565b90506000600960008481526020019081526020016000205490506000600883815481106127d3577f4e487b7100000000000000000000000000000000000000000000000000000000600052603260045260246000fd5b90600052602060002001549050806008838154811061281b577f4e487b7100000000000000000000000000000000000000000000000000000000600052603260045260246000fd5b906000526020600020018190555081600960008381526020019081526020016000208190555060096000858152602001908152602001600020600090556008805480612890577f4e487b7100000000000000000000000000000000000000000000000000000000600052603160045260246000fd5b6001900381819060005260206000200160009055905550505050565b60006128b783610b9e565b905081600660008573ffffffffffffffffffffffffffffffffffffffff1673ffffffffffffffffffffffffffffffffffffffff168152602001908152602001600020600083815260200190815260200160002081905550806007600084815260200190815260200160002081905550505050565b604051806040016040528060008152602001600073ffffffffffffffffffffffffffffffffffffffff1681525090565b82805461296790613918565b90600052602060002090601f01602090048101928261298957600085556129d0565b82601f106129a257805160ff19168380011785556129d0565b828001600101855582156129d0579182015b828111156129cf5782518255916020019190600101906129b4565b5b5090506129dd91906129e1565b5090565b5b808211156129fa5760008160009055506001016129e2565b5090565b6000612a11612a0c8461369a565b613675565b90508083825260208201905082856020860282011115612a3057600080fd5b60005b85811015612a605781612a468882612bb8565b845260208401935060208301925050600181019050612a33565b5050509392505050565b6000612a7d612a78846136c6565b613675565b905082815260208101848484011115612a9557600080fd5b612aa08482856138ac565b509392505050565b6000612abb612ab6846136f7565b613675565b905082815260208101848484011115612ad357600080fd5b612ade8482856138ac565b509392505050565b600081359050612af58161407f565b92915050565b600082601f830112612b0c57600080fd5b8135612b1c8482602086016129fe565b91505092915050565b600081359050612b3481614096565b92915050565b600081359050612b49816140ad565b92915050565b600081519050612b5e816140ad565b92915050565b600082601f830112612b7557600080fd5b8135612b85848260208601612a6a565b91505092915050565b600082601f830112612b9f57600080fd5b8135612baf848260208601612aa8565b91505092915050565b600081359050612bc7816140c4565b92915050565b600060208284031215612bdf57600080fd5b6000612bed84828501612ae6565b91505092915050565b60008060408385031215612c0957600080fd5b6000612c1785828601612ae6565b9250506020612c2885828601612ae6565b9150509250929050565b600080600060608486031215612c4757600080fd5b6000612c5586828701612ae6565b9350506020612c6686828701612ae6565b9250506040612c7786828701612bb8565b9150509250925092565b60008060008060808587031215612c9757600080fd5b6000612ca587828801612ae6565b9450506020612cb687828801612ae6565b9350506040612cc787828801612bb8565b925050606085013567ffffffffffffffff811115612ce457600080fd5b612cf087828801612b64565b91505092959194509250565b60008060008060808587031215612d1257600080fd5b6000612d2087828801612ae6565b945050602085013567ffffffffffffffff811115612d3d57600080fd5b612d4987828801612afb565b935050604085013567ffffffffffffffff811115612d6657600080fd5b612d7287828801612afb565b925050606085013567ffffffffffffffff811115612d8f57600080fd5b612d9b87828801612b64565b91505092959194509250565b60008060408385031215612dba57600080fd5b6000612dc885828601612ae6565b9250506020612dd985828601612b25565b9150509250929050565b60008060408385031215612df657600080fd5b6000612e0485828601612ae6565b9250506020612e1585828601612bb8565b9150509250929050565b600060208284031215612e3157600080fd5b6000612e3f84828501612b3a565b91505092915050565b600060208284031215612e5a57600080fd5b6000612e6884828501612b4f565b91505092915050565b600060208284031215612e8357600080fd5b600082013567ffffffffffffffff811115612e9d57600080fd5b612ea984828501612b8e565b91505092915050565b600060208284031215612ec457600080fd5b6000612ed284828501612bb8565b91505092915050565b612ee481613838565b82525050565b612ef381613826565b82525050565b612f028161384a565b82525050565b6000612f1382613728565b612f1d818561373e565b9350612f2d8185602086016138bb565b612f3681613ab1565b840191505092915050565b6000612f4c82613733565b612f56818561374f565b9350612f668185602086016138bb565b612f6f81613ab1565b840191505092915050565b6000612f8582613733565b612f8f8185613760565b9350612f9f8185602086016138bb565b80840191505092915050565b6000612fb8602b8361374f565b9150612fc382613ac2565b604082019050919050565b6000612fdb60328361374f565b9150612fe682613b11565b604082019050919050565b6000612ffe60268361374f565b915061300982613b60565b604082019050919050565b600061302160258361374f565b915061302c82613baf565b604082019050919050565b6000613044601c8361374f565b915061304f82613bfe565b602082019050919050565b600061306760158361374f565b915061307282613c27565b602082019050919050565b600061308a60248361374f565b915061309582613c50565b604082019050919050565b60006130ad60198361374f565b91506130b882613c9f565b602082019050919050565b60006130d0602c8361374f565b91506130db82613cc8565b604082019050919050565b60006130f360388361374f565b91506130fe82613d17565b604082019050919050565b6000613116602a8361374f565b915061312182613d66565b604082019050919050565b600061313960298361374f565b915061314482613db5565b604082019050919050565b600061315c602e8361374f565b915061316782613e04565b604082019050919050565b600061317f60208361374f565b915061318a82613e53565b602082019050919050565b60006131a260318361374f565b91506131ad82613e7c565b604082019050919050565b60006131c5602c8361374f565b91506131d082613ecb565b604082019050919050565b60006131e860208361374f565b91506131f382613f1a565b602082019050919050565b600061320b602f8361374f565b915061321682613f43565b604082019050919050565b600061322e60218361374f565b915061323982613f92565b604082019050919050565b600061325160318361374f565b915061325c82613fe1565b604082019050919050565b6000613274602c8361374f565b915061327f82614030565b604082019050919050565b6040820160008201516132a060008501826132b9565b5060208201516132b36020850182612edb565b50505050565b6132c2816138a2565b82525050565b6132d1816138a2565b82525050565b60006132e38285612f7a565b91506132ef8284612f7a565b91508190509392505050565b60006020820190506133106000830184612eea565b92915050565b600060808201905061332b6000830187612eea565b6133386020830186612eea565b61334560408301856132c8565b81810360608301526133578184612f08565b905095945050505050565b60006020820190506133776000830184612ef9565b92915050565b600060208201905081810360008301526133978184612f41565b905092915050565b600060208201905081810360008301526133b881612fab565b9050919050565b600060208201905081810360008301526133d881612fce565b9050919050565b600060208201905081810360008301526133f881612ff1565b9050919050565b6000602082019050818103600083015261341881613014565b9050919050565b6000602082019050818103600083015261343881613037565b9050919050565b600060208201905081810360008301526134588161305a565b9050919050565b600060208201905081810360008301526134788161307d565b9050919050565b60006020820190508181036000830152613498816130a0565b9050919050565b600060208201905081810360008301526134b8816130c3565b9050919050565b600060208201905081810360008301526134d8816130e6565b9050919050565b600060208201905081810360008301526134f881613109565b9050919050565b600060208201905081810360008301526135188161312c565b9050919050565b600060208201905081810360008301526135388161314f565b9050919050565b6000602082019050818103600083015261355881613172565b9050919050565b6000602082019050818103600083015261357881613195565b9050919050565b60006020820190508181036000830152613598816131b8565b9050919050565b600060208201905081810360008301526135b8816131db565b9050919050565b600060208201905081810360008301526135d8816131fe565b9050919050565b600060208201905081810360008301526135f881613221565b9050919050565b6000602082019050818103600083015261361881613244565b9050919050565b6000602082019050818103600083015261363881613267565b9050919050565b6000604082019050613654600083018461328a565b92915050565b600060208201905061366f60008301846132c8565b92915050565b600061367f613690565b905061368b828261394a565b919050565b6000604051905090565b600067ffffffffffffffff8211156136b5576136b4613a82565b5b602082029050602081019050919050565b600067ffffffffffffffff8211156136e1576136e0613a82565b5b6136ea82613ab1565b9050602081019050919050565b600067ffffffffffffffff82111561371257613711613a82565b5b61371b82613ab1565b9050602081019050919050565b600081519050919050565b600081519050919050565b600082825260208201905092915050565b600082825260208201905092915050565b600081905092915050565b6000613776826138a2565b9150613781836138a2565b9250827fffffffffffffffffffffffffffffffffffffffffffffffffffffffffffffffff038211156137b6576137b56139f5565b5b828201905092915050565b60006137cc826138a2565b91506137d7836138a2565b9250826137e7576137e6613a24565b5b828204905092915050565b60006137fd826138a2565b9150613808836138a2565b92508282101561381b5761381a6139f5565b5b828203905092915050565b600061383182613882565b9050919050565b600061384382613882565b9050919050565b60008115159050919050565b60007fffffffff0000000000000000000000000000000000000000000000000000000082169050919050565b600073ffffffffffffffffffffffffffffffffffffffff82169050919050565b6000819050919050565b82818337600083830152505050565b60005b838110156138d95780820151818401526020810190506138be565b838111156138e8576000848401525b50505050565b60006138f9826138a2565b9150600082141561390d5761390c6139f5565b5b600182039050919050565b6000600282049050600182168061393057607f821691505b6020821081141561394457613943613a53565b5b50919050565b61395382613ab1565b810181811067ffffffffffffffff8211171561397257613971613a82565b5b80604052505050565b6000613986826138a2565b91507fffffffffffffffffffffffffffffffffffffffffffffffffffffffffffffffff8214156139b9576139b86139f5565b5b600182019050919050565b60006139cf826138a2565b91506139da836138a2565b9250826139ea576139e9613a24565b5b828206905092915050565b7f4e487b7100000000000000000000000000000000000000000000000000000000600052601160045260246000fd5b7f4e487b7100000000000000000000000000000000000000000000000000000000600052601260045260246000fd5b7f4e487b7100000000000000000000000000000000000000000000000000000000600052602260045260246000fd5b7f4e487b7100000000000000000000000000000000000000000000000000000000600052604160045260246000fd5b6000601f19601f8301169050919050565b7f455243373231456e756d657261626c653a206f776e657220696e646578206f7560008201527f74206f6620626f756e6473000000000000000000000000000000000000000000602082015250565b7f4552433732313a207472616e7366657220746f206e6f6e20455243373231526560008201527f63656976657220696d706c656d656e7465720000000000000000000000000000602082015250565b7f4f776e61626c653a206e6577206f776e657220697320746865207a65726f206160008201527f6464726573730000000000000000000000000000000000000000000000000000602082015250565b7f4552433732313a207472616e736665722066726f6d20696e636f72726563742060008201527f6f776e6572000000000000000000000000000000000000000000000000000000602082015250565b7f4552433732313a20746f6b656e20616c7265616479206d696e74656400000000600082015250565b7f63616e27742072656d6f76652074686973206e66740000000000000000000000600082015250565b7f4552433732313a207472616e7366657220746f20746865207a65726f2061646460008201527f7265737300000000000000000000000000000000000000000000000000000000602082015250565b7f4552433732313a20617070726f766520746f2063616c6c657200000000000000600082015250565b7f4552433732313a206f70657261746f7220717565727920666f72206e6f6e657860008201527f697374656e7420746f6b656e0000000000000000000000000000000000000000602082015250565b7f4552433732313a20617070726f76652063616c6c6572206973206e6f74206f7760008201527f6e6572206e6f7220617070726f76656420666f7220616c6c0000000000000000602082015250565b7f4552433732313a2062616c616e636520717565727920666f7220746865207a6560008201527f726f206164647265737300000000000000000000000000000000000000000000602082015250565b7f4552433732313a206f776e657220717565727920666f72206e6f6e657869737460008201527f656e7420746f6b656e0000000000000000000000000000000000000000000000602082015250565b7f45524337323155524953746f726167653a2055524920736574206f66206e6f6e60008201527f6578697374656e7420746f6b656e000000000000000000000000000000000000602082015250565b7f4552433732313a206d696e7420746f20746865207a65726f2061646472657373600082015250565b7f45524337323155524953746f726167653a2055524920717565727920666f722060008201527f6e6f6e6578697374656e7420746f6b656e000000000000000000000000000000602082015250565b7f4552433732313a20617070726f76656420717565727920666f72206e6f6e657860008201527f697374656e7420746f6b656e0000000000000000000000000000000000000000602082015250565b7f4f776e61626c653a2063616c6c6572206973206e6f7420746865206f776e6572600082015250565b7f4552433732314d657461646174613a2055524920717565727920666f72206e6f60008201527f6e6578697374656e7420746f6b656e0000000000000000000000000000000000602082015250565b7f4552433732313a20617070726f76616c20746f2063757272656e74206f776e6560008201527f7200000000000000000000000000000000000000000000000000000000000000602082015250565b7f4552433732313a207472616e736665722063616c6c6572206973206e6f74206f60008201527f776e6572206e6f7220617070726f766564000000000000000000000000000000602082015250565b7f455243373231456e756d657261626c653a20676c6f62616c20696e646578206f60008201527f7574206f6620626f756e64730000000000000000000000000000000000000000602082015250565b61408881613826565b811461409357600080fd5b50565b61409f8161384a565b81146140aa57600080fd5b50565b6140b681613856565b81146140c157600080fd5b50565b6140cd816138a2565b81146140d857600080fd5b5056fea2646970667358221220004e2fc849ad196b8f7853cbfa56d91156fe48a4fab0425d400a32476be8434564736f6c63430008040033",
  "linkReferences": {},
  "deployedLinkReferences": {}
}